:020000040800F2
:10000000A00E0020190200081D0200081F020008AF
:100010002102000823020008250200080000000059
:10002000000000000000000000000000270200089F
:1000300029020008000000002B0200082D02000821
:100040002F0200082F0200082F0200082F020008CC
:100050002F0200082F0200082F0200082F020008BC
:100060002F0200082F0200082F0200082F020008AC
:100070002F0200082F0200082F0200082F0200089C
:100080002F0200082F0200082F0200082F0200088C
:10009000318500082F0200082F0200082F020008F7
:1000A0002F0200082F0200082F0200082F0200086C
:1000B000695E0008815E0008B55E00082F02000836
:1000C0002F0200082F0200082F0200082F0200084C
:1000D0002F02000861200008C3250008B12C000889
:1000E000651700082F0200082F0200082F020008E1
:1000F0002F0200082F0200082F0200082F0200081C
:100100002F0200082F020008C75E00082F02000817
:100110002F0200082F0200082F0200082F020008FB
:100120002F0200082F0200082F0200082F020008EB
:1001300000F002F800F05AF80AA090E8000C82449F
:100140008344AAF10107DA4501D100F04FF8AFF27C
:10015000090EBAE80F0013F0010F18BFFB1A43F0A5
:100160000103184790D60000B0D600000A4410F8EA
:10017000014B14F00F0508BF10F8015B240908BFFC
:1001800010F8014B6D1E05D010F8013B6D1E01F8F3
:10019000013BF9D1641E03D0641E01F8015BFBD161
:1001A0009142E4D37047000000230024002500267C
:1001B000103A28BF78C1FBD8520728BF30C148BFCA
:1001C0000B60704766290BF01686642908F0F681EB
:1001D000002070471FB508F031FE04000020002108
:1001E0000AF030FCE0601FBD10B510BD08F046FFFE
:1001F0001146FFF7EFFF00F0CEF808F064FF03B4FC
:10020000FFF7F2FF03BC01F09DFE000030BF72B6A5
:1002100062B680F30888704708480047FEE7FEE7AB
:10022000FEE7FEE7FEE7FEE7FEE7FEE7FEE7FEE7A6
:1002300003480449044A054B704700003101000897
:10024000A0080020A00E0020A00A0020A00A002084
:100250002DE9F047F5A008F0A5F9F64800680BF085
:10026000EDFB0746F4490BF0B7FA04460BF01AFA17
:1002700005462A460B46F1A008F094F9F1A008F0D3
:1002800091F9F1480168F14800680BF03FFD8146A3
:10029000EF48016848460BF039FD0646ED48016815
:1002A00030460BF02BFA05464FF081410BF094FAE3
:1002B00004460BF0F7F907463A460B46E6A008F06D
:1002C00071F9E7A008F06EF9E64800680BF0EAF96A
:1002D000044622460B46E4A008F064F9E4A008F0C6
:1002E00061F9E44800680BF0DDF9044622460B464C
:1002F000DDA008F057F9E0A008F054F9DF480068E5
:100300000BF0D0F9044622460B46D7A008F04AF974
:10031000DBA008F047F90021DAA008F043F9DAA0E1
:1003200008F040F9D94800680BF04CFB04B22146B4
:10033000D4A008F037F9D6A008F034F9D548006801
:100340000BF040FB04B22146CEA008F02BF9D2A05E
:1003500008F028F9D14800680BF034FB04B22146BC
:10036000C8A008F01FF9CEA008F01CF9CD4800681D
:100370000BF028FB04B22146C2A008F013F9CAA072
:1003800008F010F90021BFA008F00CF9C7A008F090
:1003900009F9BDE8F08708B5092001F07AFD482089
:1003A00001F01AFC022001F05FFD012001F05CFD6C
:1003B000002141F61F4006F06FF907F075FA06F0CC
:1003C0001DF906F03DF84FF4E131482001F0D5FD6C
:1003D0004FF41651242002F025F8642001F034FC7B
:1003E0004120B34BB34AB4490090012007F06AFDA5
:1003F000B0481030008840F08000AE4910310880CD
:100400004121AD4807F0A6FD142001F01DFC05F0C8
:100410004DFB05F0BBFB05F023FC05F089FC02F069
:1004200055FC642001F010FC05F084FD0A2001F069
:100430000BFC06F041FC0A2001F006FC06F050FC23
:100440004FF4C87001F000FC07F0E3FC07F028FD52
:10045000642001F0F9FB05F043FD1FE097480078A8
:10046000401C9649087008460078012801D1FFF722
:10047000EFFE92480078052801DB06F0B3FF8F48B5
:100480000078072802D100208C49087001208C498F
:10049000087000BF8A4800780028FBD1DEE730B53D
:1004A00000280ADA0124874D2C600024864DC5F807
:1004B00090414442854D2C8008E00024814D2C6001
:1004C0000124814DC5F89041804D288000290CDA27
:1004D00001247C4D083D2C6000247B4DC5F88841EB
:1004E0004C427A4D2D1F2C800AE00024754D083DAA
:1004F0002C600124744DC5F88841744D2D1F29804E
:10050000002A0BDA0124724D2C600024714DC5F8CD
:10051000BC4154426D4D08352C8009E000246C4DDF
:100520002C6001246B4DC5F8BC41684D08352A800C
:10053000002B0BDA0124684D2C600024674DC5F8B0
:1005400094415C42614D2D1D2C8009E00024624DD8
:100550002C600124614DC5F894415C4D2D1D2B800C
:1005600030BD2DE9F0475E48006841F6BC31884255
:1005700005DB5C49354800680BF08CFA4FD35848CE
:1005800000685949884205DC2B49304800680BF067
:1005900081FB44D35548006841F6BC31884205DBF5
:1005A0005049294800680BF075FA38D34F48006865
:1005B0004D49884205DC2049234800680BF06AFB5E
:1005C0002DD34B48006841F6BC31884205DB4549D4
:1005D0001F4800680BF05EFA21D345480068424985
:1005E000884205DC14491A4800680BF053FB16D307
:1005F0004048006841F6BC31884205DB394915485E
:1006000000680BF047FA0AD33A4800683649884236
:1006100074DC09490F4800680BF03CFB6ED2364889
:100620000088401C344908806BE067E02020413A94
:1006300000000000180000200000C842252E32668D
:1006400056000000423A00005C00002058000020E4
:100650006000002064000020252E336600000000AA
:10066000433A000068000020252E31665600000045
:10067000443A00006C000020453A00007000002061
:10068000463A00002564000047000000A800002052
:1006900048000000AC00002049000000A00000203D
:1006A0004A000000A40000204B0000003B20000096
:1006B0006002002004380140440002400300002092
:1006C000050000208C012242000022423834014003
:1006D000808121420080214290012142000021427C
:1006E000240000200000C8C244E4FFFF28000020CE
:1006F0002C000020300000200E0000200020FE49C9
:100700000880FD480088B0F5967F02DD0020FB4997
:100710000870FB48D0F800A0BAF1000F01DB50468A
:1007200001E0CAF1000041F6BC3188420BDBF5481C
:1007300000680AF0B7FF21F0004107460022F24BA3
:100740000AF064FC47D3F148D0F80090B9F1000FEB
:1007500001DB484601E0C9F1000041F6BC318842A6
:100760000BDBEB4800680AF09DFF21F000410746D3
:100770000022E54B0AF04AFC2DD3E6480668002E1D
:1007800001DB304600E0704241F6BC3188420BDBB1
:10079000E14800680AF086FF21F000410746002288
:1007A000D94B0AF033FC16D3DC480568002D01DB79
:1007B000284600E0684241F6BC31884211DBD84847
:1007C00000680AF06FFF21F0004107460022CE4B7F
:1007D0000AF01CFC05D2D3480088401CD14908808F
:1007E00002E00020CF490880CE480088B0F57A7F2B
:1007F00002DD0020C1490870C14D2B68002B01DBD0
:100800001D4600E05D42C14E3268002A01DB1646FB
:1008100000E056422E44BF4D2968002901DB0D46F9
:1008200000E04D422E44BD4D2868002801DB0546FE
:1008300000E045427419BC48006840F6AC018842AB
:1008400008DAB4F5FA5F05DAB8480088401CB74901
:10085000088050E0B448006840F6660188420CDA2F
:1008600042F6E060844208DAB4F5FA5F05DBAF488F
:100870000088401CAD4908803DE0AB48006840F668
:10088000340188420DDA44F25060844209DA42F6BB
:10089000E060844205DBA5480088401CA34908802D
:1008A00029E0A1480068B0F5FA6F0DDA47F2481068
:1008B000844209DA44F62060844205DB9B480088C4
:1008C000401C9A49088016E09748006840F2A461ED
:1008D00088420DDA47F24810844209DA44F6206073
:1008E000844205DB9148008814309049088002E07A
:1008F00000208E4908808D480088B0F57A6F02DDAF
:1009000000207E49087088480068B0F52F7F03DA20
:1009100001208749087002E0002085490870854859
:100920000088B0F5167F04DA82480088401C8149AF
:1009300008807348006880490968401AB0F5FA7F5A
:1009400006DD7D48006800F5FA706D4908600DE02D
:100950006B48006878490968401A10F5FA7F05DA93
:1009600075480068A0F5FA70654908606448006839
:10097000714908606548006870490968401AB0F517
:10098000FA7F06DD6D48006800F5FA705F4908607F
:100990000DE05E48006869490968401A10F5FA7F61
:1009A00005DA66480068A0F5FA70584908605748AB
:1009B0000068624908605748006861490968401A40
:1009C000B0F5FA7F06DD5E48006800F5FA7051491F
:1009D00008600DE04F48006859490968401A10F551
:1009E000FA7F05DA56480068A0F5FA7049490860B0
:1009F00048480068524908604848006851490968F9
:100A0000401AB0F5FA7F06DD4E48006800F5FA702E
:100A1000424908600DE0414800684A490968401AA7
:100A200010F5FA7F05DA47480068A0F5FA703B49EF
:100A300008603A480068434908603148006841F658
:100A4000BC31884202DD08462D4908602C48006808
:100A50003D49884202DA0846294908602B48006867
:100A600041F6BC31884202DD084628490860274823
:100A700000683549884202DA08462449086025485A
:100A8000006841F6BC31884202DD08462149086011
:100A9000204800682C49884202DA08461D4908604F
:100AA0001E48006841F6BC31884202DD08461B49F9
:100AB00008601A4800682449884202DA0846174943
:100AC00008602248006810B9002021490870BDE87C
:100AD000F0872DE9F04704460D46281B0AF0AEFFCB
:100AE0001C4908601C4801681A4800680BF006F8A9
:100AF00081461A4934E000000E0000200100002069
:100B0000240000205800002000002440280000207D
:100B10005C0000202C00002060000020300000203D
:100B200064000020100000201800002012000020A7
:100B300002000020140000203400002038000020B3
:100B40003C0000204000002044E4FFFF04812142DB
:100B500000000020E4000020AC0000200000C8429B
:100B60000AF03AFE0746FE480168FE4800680BF0AE
:100B7000CDF88146FC48016848460AF0BFFF804630
:100B800039460AF0BBFD0646F848016830460AF0CF
:100B9000B5FDF6490860F3480068F1490860F4487B
:100BA000007818B900200860F0490860EF48006834
:100BB0000AF008FFBDE8F0872DE9F04704460D462E
:100BC000281B0AF03BFFEB490860EB480168E94845
:100BD00000680AF093FF8146E8490AF0FDFD0746E8
:100BE000E7480168E34800680BF090F88146DE486A
:100BF000016848460AF082FF804639460AF07EFDC9
:100C00000646E048016830460AF078FDDD49086094
:100C1000D8480068DA490860D548007818B900203B
:100C20000860D8490860D74800680AF0CBFEBDE8E4
:100C3000F0872DE9F04704460D46281B0AF0FEFE1A
:100C4000D1490860CC480168CF4800680AF056FFD7
:100C50008146CA490AF0C0FD0746CC480168CA4827
:100C600000680BF053F88146BF48016848460AF017
:100C700045FF804639460AF041FD0646C4480168F2
:100C800030460AF03BFDC2490860BF480068BF49D2
:100C90000860B748007818B900200860BC490860AF
:100CA000BB4800680AF08EFEBDE8F0872DE9F047EA
:100CB00004460D46281B0AF0C1FEB6490860AE483E
:100CC0000168B44800680AF019FF8146AB490AF090
:100CD00083FD0746B0480168AE4800680BF016F87F
:100CE0008146A148016848460AF008FF8046394617
:100CF0000AF004FD0646A948016830460AF0FEFCE9
:100D0000A6490860A3480068A3490860984800788D
:100D100018B900200860A1490860A04800680AF0DE
:100D200051FEBDE8F08770B59D4800689D4909688F
:100D3000884204DA9A480068801C994908609848FB
:100D4000006898490968884204DD95480068001FDA
:100D5000934908608648007810B19348007818B924
:100D60004FF496708E49086090480088B0F5967FE1
:100D70007EDD8D48007801280BD1894800680AF093
:100D80005DFE8B4908608B4908608B4908608B4980
:100D900008608548007802280CD1814800684042EC
:100DA0000AF04CFE82490860824908608249086066
:100DB000824908607C480078032824D1784800687C
:100DC0000AF03CFE7D490860754800680AF036FE6E
:100DD00004467B490AF092FE774908607048006833
:100DE0000AF02CFE04464FF07C510AF087FE714950
:100DF00008606B4800680AF021FE044671490AF059
:100E00007DFE6B49086068480078042824D1644856
:100E100000680AF013FE68490860614800680AF03B
:100E20000DFE044666490AF069FE644908605C48A4
:100E300000680AF003FE04464FF07C510AF05EFEA3
:100E40005B490860564800680AF0F8FD04465D49B1
:100E50000AF054FE5749086053480078052827D106
:100E60004F48006840420AF0E9FD5449086000E03C
:100E7000C9E04B4800680AF0E1FD044652490AF017
:100E80003DFE4D490860464800680AF0D7FD04461B
:100E90004FF03F410AF032FE464908604048006882
:100EA0000AF0CCFD044649490AF028FE4049086092
:100EB0003D480078062825D13948006840420AF0AC
:100EC000BDFD3D490860364800680AF0B7FD04469C
:100ED0003D490AF013FE39490860314800680AF0BC
:100EE000ADFD04464FF03F410AF008FE304908606E
:100EF0002B4800680AF0A2FD044634490AF0FEFDC2
:100F00002C49086028480078072819D1254800682E
:100F10000AF094FD294908602248006840420AF01E
:100F20008DFD254908601F48006840420AF086FD93
:100F3000204908601B4800680AF080FD1C490860D1
:100F400019480078082852D11648006840420AF033
:100F500075FD1A490860134800680AF06FFD37E014
:100F6000E8000020E4000020A8000020E0000020AD
:100F700000000020D8000020AC0000200000C84283
:100F8000DC000020D4000020CC000020D000002095
:100F9000C8000020C0000020C4000020BC000020C9
:100FA000B8000020440000200600002014000020AB
:100FB00054000020500000204C0000204800002079
:100FC0003333333F3333733F333333BF333373BF41
:100FD000F9490860F94800680AF030FDF8490860EE
:100FE000F648006840420AF029FDF6490860F648D4
:100FF000007840B90020F3490860F1490860EE49E3
:101000000860F2490860F2480088B0F5967F4FDA30
:10101000F049F14800680AF0DFFB0646EF490AF0A4
:10102000DBFB0546EE490AF069FD04464FF08D41B1
:101030000AF064FDE5490860E649EA4800680AF0FC
:10104000CBFB0646E5490AF0C7FB0546E4490AF032
:1010500055FD04464FF08D410AF050FDD649086019
:10106000DC49E14800680AF0B7FB0646DB490AF0B4
:10107000B3FB0546DA490AF041FD04464FF08D41C5
:101080000AF03CFDCE490860D249D84800680AF011
:10109000A3FB0646D1490AF09FFB0546D0490AF05A
:1010A0002DFD04464FF08D410AF028FDC54908602A
:1010B00070BD10B5CE4801680068401CCC4A106075
:1010C0000A291AD106F07AFDCA490870072006F0ED
:1010D00098FDC9490870082006F093FDC7490870BB
:1010E000052006F08EFDC6490870062006F089FD31
:1010F000C44908700020BE490860BE4800780D2829
:1011000003D10120C04908702AE0BA4800780F28AE
:1011100003D10020BC49087022E0B64800780B28B3
:1011200004D14FF49670A549086019E0B1480078E1
:10113000092804D14FF4C870A049086010E0AD48F8
:1011400000780C2804D14FF448709C49086007E0EF
:10115000A84800780A2803D14FF4C860974908606E
:10116000A648007858281BDAA3480078582817DDCD
:10117000A1480078A82813DAA148007858280FDD84
:101180009F480078A8280BDA9E480078582807DD89
:101190009C480078A82803DA01208B490870F2E007
:1011A00096480078A8281BDD93480078582817DD5A
:1011B00091480078A82813DA9148007858280FDD64
:1011C0008F480078A8280BDA8E480078582807DD69
:1011D0008C480078A82803DA02207B490870D2E006
:1011E0008548007858281BDD83480078A82817DA3E
:1011F00082480078582813DD80480078A8280FDA44
:101200007F4800780A280BDA7E480078582807DDE6
:101210007C480078A82803DA07206B490870B2E000
:101220007548007858281BDD73480078A82817DA1D
:1012300072480078582813DD70480078A8280FDA23
:101240006F480078F5280BDD6E480078582807DDD8
:101250006C480078A82803DA08205B49087092E0FF
:1012600065480078582817DA64480078582813DA57
:101270006348007858280FDD61480078A8280BDA09
:1012800060480078582807DD5E480078A82803DA0F
:1012900003204D49087076E057480078A82817DDEC
:1012A00056480078A82813DD5548007858280FDDE7
:1012B00053480078A8280BDA52480078582807DDF0
:1012C00050480078A82803DA06203F4908705AE001
:1012D00049480078A82817DD48480078582813DACC
:1012E0004748007858280FDD45480078A8280BDAD1
:1012F00044480078582807DD42480078A82803DAD7
:101300000420314908703EE03B480078582817DA3D
:101310003A480078A82813DD3948007858280FDDAE
:1013200037480078A8280BDA36480078582807DDB7
:1013300034480078A82803DA05202349087022E001
:101340002D48007858281EDD2B480078A8281ADA86
:101350002A480078582816DD28480078A82812DA8C
:101360002748007858280EDD25480078A8280ADA92
:1013700024480078582806DD22480078A82802DA98
:1013800000201149087010BD20480068012802D1D2
:101390001D49087006E01D480068022802D100209F
:1013A0001949087019480068052831D14FF4967022
:1013B0000249086046E000004C0000204400002084
:1013C00050000020540000200600002048000020AB
:1013D0001400002031084C3F8C00002000004843DE
:1013E0000000984190000020940000209800002008
:1013F000B400002008000020090000200A0000209E
:101400000B0000200C000020000000201401002030
:10141000FE480068062804D14FF4C870FC490860F3
:1014200010E0FA480068072804D14FF44870F849E2
:10143000086007E0F5480068082803D14FF4C86049
:10144000F3490860F3480068FA2808DBF1480068AF
:10145000B0F5917F03DA0120EF49087062E0ED48B2
:101460000068462807DBEB4800686E2803DA022094
:10147000E949087056E0E7480068CD2807DBE548F1
:101480000068F52803DA0320E34908704AE0E148E0
:101490000068B0F5937F08DDDE480068B0F5A77FEF
:1014A00003DC0420DC4908703CE0DA48006873285B
:1014B00007DBD84800689B2803DA0520D649087066
:1014C00030E0D4480068192807DBD248006841287A
:1014D00003DA0620D049087024E0CE480068A0282E
:1014E00007DBCC480068C82803DA0720CA4908701F
:1014F00018E0C8480068002803DBC64800681428C4
:1015000009DBC4480068B0F5AA7F08DBC148006861
:10151000B0F5B47F03DC0820BF49087002E000206A
:10152000BD490870704710B5462004F0BCFFBB49A8
:1015300008700846007801280AD1B948007838B9FF
:101540000120B74908700020B0490860B34908700D
:10155000B248007801280AD1B1480078012806D1A4
:101560000020AF490870A9490860AC49087010BD57
:101570002DE9F0474FF08D41AA4800680AF02CF998
:101580008246A9490AF028F98146A8490AF0B6FA24
:101590000446A7490AF0B2FA05464FF08D41A54826
:1015A00000680AF019F982469F490AF015F9814648
:1015B0009E490AF0A3FA04469D490AF09FFA06469E
:1015C0004FF08D419C4800680AF006F98246964922
:1015D0000AF002F9814695490AF090FA04469449C6
:1015E0000AF08CFA07464FF08D41944800680AF0E3
:1015F000F3F882468C490AF0EFF881468B490AF0ED
:101600007DFA04468A490AF079FA804684480078CF
:101610000AF02CFA8A4908608A48006848608A48BB
:101620000068886089480068C86089480068086167
:101630008848006848618848006888618748006871
:10164000C8610846056246628762C0F82C808448FB
:1016500000680AF0F3F97A49086300204863886358
:101660008048006800F4005080B17E48443006F0A5
:1016700077FC00F0B0FD7B48406840F400507949A9
:10168000486041217748443006F064FC7648007891
:10169000012865D10024002005E07449095C21443B
:1016A000CCB2411CC8B23428F7DB704890F8340043
:1016B000A04248D1DFF8B4C19CF807309CF806205E
:1016C0009CF805109CF8040000F0A9FD81460AF082
:1016D00095F953490870DFF894C19CF80B309CF8D9
:1016E0000A209CF809109CF8080000F098FD604959
:1016F0000860DFF878C19CF80F309CF80E209CF849
:101700000D109CF80C0000F08AFD5A490860DFF8C3
:101710005CC19CF813309CF812209CF811109CF8C6
:10172000100000F07CFD54490860DFF840C19CF8CF
:1017300017309CF816209CF815109CF8140000F047
:101740006EFD4E490860FF20484981F834000020B2
:101750004B49087000244B4908804349087000BF7A
:10176000BDE8F08770B54848006800284CD14FF4B8
:10177000805046490860052004F044FB04460AF006
:101780005DF928490860032004F03CFB04460AF098
:1017900055F928490860022004F034FB04460AF099
:1017A0004DF925490860042004F02CFB04460AF09A
:1017B00045F92249086005F0D0FAFFF7D9FEFFF796
:1017C000B2FEFFF7E1FDFFF774FCFFF7ACFA144837
:1017D0000078012819D12E4800680AF0F3F8044671
:1017E000104800680AF0EEF805462146FFF75EFA59
:1017F000284908602848006880F0004528460AF01B
:10180000E1F804460B4849E0FCE071E014010020D7
:10181000440000201C01002006000020B000002031
:1018200000000020580000200000984100004843BC
:1018300031084C3F5C000020600000206400002064
:101840002402002074000020780000207C0000208A
:10185000800000208400002088000020700000200C
:10186000180000200000024001010020EC010020CF
:101870008C000020900000209400002098000020A0
:101880000001002014000020308121421404014096
:1018900048000020240000204C00002000680AF0CE
:1018A00091F806462146FFF7C4F9AF490860AF48F2
:1018B000006880F0004528460AF084F80446AC48E9
:1018C00000680AF07FF806462146FFF775F9A94936
:1018D0000860A94800680AF075F80446A74800683F
:1018E0000AF070F805462146FFF7F3F8A4490860AE
:1018F000A448007878B900210846FFF7D7F90021FD
:101900000846FFF796F900210846FFF755F9002130
:101910000846FFF7DEF8FEF724FE9A480078012813
:1019200011D19948007801280DD19848007850B914
:10193000934803688F4802688B48016894480068A0
:10194000FEF7ADFD12E0002091490860864908606D
:10195000884908608A49086000231A4619461846D3
:10196000FEF79DFD8B4800688B4908608B48006836
:10197000B0F5916F08DA89480068B0F5167F03DD8D
:10198000142004F055FE11E08448006840F6F2018E
:10199000884208DA81480068B0F5E16F03DD142061
:1019A00004F046FE02E0642004F042FE01F03BFA3F
:1019B0007B49096808447A4908607A480068401CF5
:1019C0007849086008460068C8280BD17448006848
:1019D000096890FBF1F071490860002070490860C7
:1019E000704908607048007801280BD16F48007872
:1019F000401CC0B26D490870022803D10020087055
:101A000069490870002070BD2DE9F34F83B083460B
:101A1000584604990AF07AF90290654902980AF04A
:101A200039F84AD2634902980AF034F945D262483B
:101A3000006809F037FE0646604A614B09F022FB58
:101A4000044609F015F85C490860029809F02AFE7E
:101A50005A4A5C4BCDE9000109F014FB06460F46DB
:101A60005548006809F01EFE804632463B4609F0A4
:101A700031F8044608F0FCFF4F49086052480168FD
:101A80004D4800680AF042F9504908604A48006829
:101A90004D4908604E4801684C4800680AF02EF82D
:101AA00004464C480168444800680AF027F8054697
:101AB000214609F023FE824645E03F48006809F0D0
:101AC000F1FD06463D4A3E4B09F0DCFA044608F0BB
:101AD000CFFF39490860029809F0E4FD0646374A0D
:101AE000384B09F0CFFA804689463348006809F040
:101AF000D9FD42464B46CDE9000108F0EBFF044614
:101B000008F0B6FF2C4908602F4801682A48006891
:101B10000AF0FCF82D490860274800682A49086047
:101B20002B4801682948006809F0E8FF0446294865
:101B300001682148006809F0E1FF0546214609F0E7
:101B4000DDFD80F0004A0F48007830B900201E49C2
:101B50000860194908601D490860504609F032FFC5
:101B600005B0BDE8F08F00002800002050000020E4
:101B7000600000202C0000205400002064000020A1
:101B800030000020000000200100002002000020A2
:101B900024000020700000209C000020180000207D
:101BA000200000201C000020050000200400002070
:101BB0000000C8420000C8C2F00000209A9999991C
:101BC0009999E93F9999C93FEC000020F400002061
:101BD000A4000020A00000204FF0E021096921F0BE
:101BE00004014FF0E0221161C21700EB5272C2F300
:101BF000C702234B1A701946097801EB4102C2EB68
:101C0000C1114FF6FF7202EAC1011E4A11807047EE
:101C100001461B4A12784A434FF0E0235A610022E2
:101C20009A6101221A6100BF4FF0E022106900F0B2
:101C300001021AB100F48032002AF5D000224FF0E0
:101C4000E0231A619A61704701460E4A12884A439E
:101C50004FF0E0235A6100229A6101221A6100BF0D
:101C60004FF0E022106900F001021AB100F4803256
:101C7000002AF5D000224FF0E0231A619A617047E4
:101C8000F8000020FA000020A34A0A400243A34BB8
:101C90001A6070470146072323EA010212029F4B94
:101CA0001B1D18684FF6FF0318409D4B1843104347
:101CB0009A4B1B1D186070472DE9F0410746884676
:101CC00014461D462846FFF7E5FFC5F1040007FA54
:101CD00000F60F20284100EA0800064306F00F0630
:101CE000E21704EBD2625211920002F1E022D2F824
:101CF00000212146E31704EBD3635B11A4EB431CE3
:101D0000012303FA0CF31A432046E31704EBD363D1
:101D10005B119B0003F1E023C3F800218148005DC3
:101D200040EA06107F490855BDE8F08170B50446C9
:101D30000B46CE1701EB9676C6F38700CE1701EB64
:101D40009676B610A1EB8606B606350E764B9B69E5
:101D500043F00103744EB3614FEAB63353F82030B9
:101D60000F26AE40B343714E46F82030334653F849
:101D7000203004FA05F61E436C4B43F820606C4B90
:101D80001B6801268E403343694E336002F0010325
:101D900043B1674B0C331B6801268E403343644EBE
:101DA0000C36336002F0020343B1614B08331E6806
:101DB00001238B401E435E4B08331E6070BD00B58F
:101DC000002059490861C8601420486100208861DA
:101DD000C8610846006840F0010008600846406895
:101DE0005449084050494860084600685249084034
:101DF0004D4908600846006820F4802008600846C5
:101E0000406820F4FE0048600020886000214FF008
:101E10000060FFF739FF00BD10B54048083000688A
:101E200040F004003D49083108603F48C06940F077
:101E300080503D49C8614148406840F480703F4946
:101E400048600846006840F00400086008460068E2
:101E500040F002000860FEF7D9F910BD3048001DBF
:101E60002E49091D08607047014649062E4A9269AD
:101E700042F001022C4B9A612C4A083A526822F037
:101E8000E0622A4B083B5A601A4652680A435A607D
:101E9000704730B504460025FFF791FF22480068DF
:101EA00040F480302049086000BF1F480068400CA3
:101EB0000028FAD04FF480601B494860A01EC4B2CD
:101EC0000846406840EA844048600846406840F45C
:101ED000803048601A48006840F0320018490860B5
:101EE0001148006840F080700F49086000BF0E483C
:101EF0000068400E0028FAD00B48406840F002000D
:101F00000949486005E008484068C0F3870505F0C6
:101F10000305022DF7D130BD80FFFF1F08ED00E063
:101F20000000FA0500E400E0001002400800014053
:101F3000000401400000FFF8FFFFF6FE00700040C3
:101F400000200240014600BF0020704700BFFE4A4B
:101F5000128802F04002002AF9D0C2B2FA4B1B1DCF
:101F60001A807047F949088000BFF849091F09889D
:101F700001F040010029F8D070472DE9F05F0546D7
:101F80000E46300109F072FD8146F14905FB01F072
:101F900009F06CFD8246494609F01EFC07463846AA
:101FA00009F02CFD84B2204609F060FD83463946D5
:101FB00009F0A1FE82464FF0834109F09FFD814662
:101FC00009F01CFD80464FF6FF7000EA041404EB94
:101FD000080084B2DF48806940F00400DD49886170
:101FE0000846806940F480408861DB48006820F43E
:101FF0007F60D94908600846006840F40B600860BB
:10200000D5480830006840F40070D34908310860B2
:10201000D048C06840F48040CE49C8600846C068D7
:1020200020F48040C860C948001D0480001D00885D
:1020300042F20C010843C54908310880084600886F
:1020400040F4807008800846008840F02000088036
:102050000223252201210020FFF72EFEBDE8F09F7C
:10206000BA48001F008800F0200000287AD0B74846
:102070000088BA49BA4A12788854B9480078352895
:1020800079D2DFE800F01B252F393A3B3C3D3E3F3B
:10209000404142434445464748494A4B4C4D4E4FC8
:1020A000505152535455565758595A5B5C5D5E5FB8
:1020B000606162636465666768697100A74800785B
:1020C000AA2804D1A6480078401CA549087053E00E
:1020D000A2484078AA2804D1A1480078401CA04911
:1020E000087049E09D488078F12804D19C48007828
:1020F000401C9B4908703FE000BF00BF00BF00BF0D
:1021000000BF00BF00BF00BF00BF00BF00BF00BFD7
:1021100000BF00BF00BF00BF00BF00BF00BF00BFC7
:1021200000BF00BF00BF00BF00BF00BF00BF00BFB7
:1021300000BF00BF00BF00BF00BF00BF00BF00BFA7
:1021400000BF00BF00BF00BF00BF00BF00BF00BF97
:1021500000BF00BF00BF00BF81480078401C80491D
:10216000087009E009E006E001207E4908700020BF
:102170007D49086000E000BF00BF0020704770B5D7
:1021800003463C2A00DD70BD0024784D101D2C5400
:10219000AA202C462070607020468370C2700020F8
:1021A00005E00D5C041D714E3555441CE0B29042B3
:1021B000F7DB00200AE06D4D141D2C5D2D5C2C44D6
:1021C000E5B26A4E141D3555441CE0B2141DA04200
:1021D000F1DB00BFD7E710B58FB0002016E06449EF
:1021E00001EB8004E2780DF82020A2788100491CE0
:1021F0000DF8012062788100891C0DF801202278F9
:102200008100C91C0DF80120411CC8B20F28E6DB73
:102210003C226946F120FFF7B2FF0FB010BD2DE957
:10222000FF4F8DB00D46164699464FF07E500C90EC
:102230000D9808F0D7FE074600224E4B09F020F813
:1022400001D84D480C904FF0000A0D9808F0CAFED6
:1022500007460022474B09F013F80DD80D9808F0F7
:10226000C1FE0022434BCDE90A0109F031F90746CE
:1022700008F0FEFB824603E00D9809F0F7FB82466A
:10228000504609F00FFA00224FF08043CDE90A01D1
:1022900008F0F8FE074608F0EBFB8246284608F0F7
:1022A000A1FE07460022334B08F0EAFF0CD8504647
:1022B00009F0F8F90022314BCDE90A0108F00AFCD7
:1022C000074608F0D5FB8246504609F0EBF900229C
:1022D0002B4BCDE90A0109F0FBF8074608F0C8FBD3
:1022E00082460024284608F07DFE07460022214B46
:1022F00008F0C6FF0CD8284608F074FE07460022F6
:102300001C4B09F0E5F8CDE90A0108F027FEC5B23B
:10231000284608F067FE074600221A4B08F0B2FE76
:10232000CDE90201304608F05DFECDE90001DDE9AE
:10233000022308F0CFFB0022124BCDE9040108F084
:10234000A1FECDE908011FE000440040043801402F
:1023500040420F000010024004080140EC01002040
:10236000000100200101002008010020600200207F
:102370002402002000006040000080BF0000F03F09
:1023800000C05F4000007040484608F02BFECDE9D9
:102390000601DDE9082308F09DFBCDE90A0108F0FC
:1023A00067FB04464FF09641204609F015FA0446B3
:1023B00021464FF07E5009F0A1F9074609F072F965
:1023C000CDE90801504609F06DF907463A460B463B
:1023D00000204FF0804107F023FECDE904010C9866
:1023E00009F060F9CDE90201DDE9042308F04AFEB5
:1023F000CDE90601DDE9082308F044FECDE90A0134
:1024000008F036FB8346584611B0BDE8F08FFB4913
:10241000088000BFF949091F098801F0400100291F
:10242000F8D070472DE9F05F05460E46300109F0FF
:102430001DFB8146F24905FB01F009F017FB8246BE
:10244000494609F0C9F90746384609F0D7FA84B277
:10245000204609F00BFB8346394609F04CFC8246C6
:102460004FF0834109F04AFB814609F0C7FA8046E4
:102470004FF6FF7000EA041404EB080084B2E14850
:10248000806940F00400DF4988610846C06940F473
:102490000030C861DC48006820F47F40DA490860F9
:1024A0000846006840F40B400860D648006940F4D4
:1024B0000030D44908610846006920F40030086102
:1024C000CE48001D0480001D008842F20C01084324
:1024D000CA49083108800846008840F480700880A6
:1024E0000846008840F020000880022326220121AF
:1024F0000020FFF7E1FBBDE8F09F2DE9F041054624
:1025000015B93020FFF783FF002D23DD2F4603E0B0
:102510000A2097FBF0F7761C002FF9D100240BE07E
:102520000A2095FBF0F100FB1150B84941F8240056
:102530000A2095FBF0F5641CB442F1DB741E07E041
:10254000B24911F824103031C8B2FFF760FF641EA1
:10255000002CF5DA002D28DAC5F100086F4203E0FF
:102560000A2097FBF0F7761C002FF9D12D20FFF7FA
:102570004EFF00240BE00A2098FBF0F100FB1180D5
:10258000A24941F824000A2098FBF0F8641CB442E8
:10259000F1DB741E07E09D4911F824103031C8B2F8
:1025A000FFF735FF641E002CF5DA0A20FFF72FFF36
:1025B0000D20FFF72CFF2821944806F0F6F8BDE81F
:1025C000F0812DE9F04786B08C48001F008800F0AC
:1025D000200000287ED0894800888D498D4A1278D5
:1025E00041F8220008460068792805D18A48006829
:1025F00010B901208849086085480068AA2805D1DB
:102600008548006810B90220834908608248006844
:1026100001287DD17F48007806287AD2DFE800F0D3
:10262000030930363C7E7B480078401C79490870AD
:102630008EE077484068622808D176480078401CD0
:102640007449087000207549087018E070484068A7
:10265000762808D16F480078401C6E490870012028
:102660006E4908700BE06A484068642807D16948E1
:102670000078401C6749087002206849087067E0CC
:1026800064480078401C6349087061E06148007844
:10269000401C604908705BE060480078A8B95C485D
:1026A000C0680A2811D15A4800690D280DD10020B0
:1026B00059490860564880685949086000205549C2
:1026C00008703221524806F070F85448007801280A
:1026D00017D100E045E24E48C0680A2811D14C48A5
:1026E00000690D280DD100204B49086048488068DA
:1026F0004C4908600020474908703221444806F0E0
:1027000054F846480078022807D14248007801E092
:102710001FE01CE0401C3F49087019E03C4800697C
:102720000A280AD13A4840690D2806D138488068FD
:102730003749C96808443C490860002036490860A8
:10274000344908703221324806F02FF800E000BF0B
:1027500007E2314800680228FAD12E48007807289D
:1027600023D12B48007A314908702948007B304931
:1027700008702748007C2F4908702548007D2E49A5
:1027800008702348007E2D490870284800782849A1
:1027900009780844274909780844274909780844F2
:1027A000264909780844264908701A4800780728FD
:1027B0007EDD18480178224800780830814277D1C0
:1027C00013484068AF28FAD111491D480078C01D50
:1027D00051F820000A28F2D119480078083051F841
:1027E00020000D28EBD11148007800286BDD002077
:1027F000144908604FF0010A59E000000444004009
:1028000040420F0000100240000801406C0300200D
:10281000A40200202C0100200C0100201001002047
:1028200014010020180100201C01002020010020BC
:10283000210100202201002023010020240100208A
:102840002501002028010020FE490978A1EB0A009B
:1028500008F0B1FB02460B46CDE900010020FA4921
:1028600007F0DEFB06460F46F84A0AF1060152F869
:102870002110A1F1300008F09EFB804632463B4615
:1028800008F000FCCDE90401F148006808F0AAFB5B
:10289000CDE90201DDE9042308F01CF9044608F043
:1028A0005DFBEB4908600AF1010000F0FF0A00E05F
:1028B0004DE1E44800788245C6DDE548006809F04E
:1028C000D5F8E4490860E4480078002844DD002099
:1028D000DF4908604FF0010A34E0DF490978A1EBD5
:1028E0000A0008F068FB02460B46CDE90001002013
:1028F000D54907F095FBCDE90201D2490978514449
:10290000891DD24A52F82110A1F1300008F053FB82
:102910008046DDE9022308F0B5FB06460F46CC48A9
:10292000006808F05FFB32463B46CDE9040108F041
:10293000D1F8044608F012FBC54908600AF101000D
:1029400000F0FF0AC44800788245C6DDC048006830
:1029500009F08CF8C1490860C1480078002847DDBB
:102960000020BB4908604FF0010A37E0BC490978F4
:10297000A1EB0A0008F01FFB02460B46CDE900015F
:102980000020B14907F04CFB04460D46B2490978D6
:10299000AC4A127811445144891DAC4A52F82110B6
:1029A000A1F1300008F007FB064622462B4608F04E
:1029B00069FBCDE90401A648006808F013FBCDE9E6
:1029C0000201DDE9042308F085F8804608F0C6FA24
:1029D0009F4908600AF1010000F0FF0AA048007852
:1029E0008245C3DD9A48006809F040F89D490860B7
:1029F0009D48007800284ADD0020954908604FF086
:102A0000010A3AE098490978A1EB0A0008F0D3FAE4
:102A1000064632460B4600208B4907F001FBCDE904
:102A200002018F4909788C4A12781144854A12783C
:102A300011445144891D854A52F82110A1F13000FA
:102A400008F0B9FACDE90001DDE9022308F01AFB2C
:102A500004460D467E48006808F0C4FA80462246C7
:102A60002B4608F037F8CDE9040108F077FA7849E9
:102A700008600AF1010000F0FF0A7B4800788245F7
:102A8000C0DD7348006808F0F1FF784908607848B5
:102A90000078002848DD00206D4908604FF0010AE9
:102AA0003EE073490978A1EB0A0008F084FA024677
:102AB0000B46CDE900010020634907F0B1FA8046DA
:102AC000894669490978664A12781144624A12783F
:102AD00011445C4A127811445144891D5B4A52F8F2
:102AE0002110A1F1300008F066FA064642464B4636
:102AF00008F0C8FA04460D465548006808F072FA16
:102B000022462B46CDE9020107F0E4FFCDE904019E
:102B100008F024FA4E4908600AF1010000F0FF0AAB
:102B2000534800788245BCDD0020464908704A4978
:102B300008704B4908704C4908704D4908704D4960
:102B400008704D4908603221404805F02EFE4B4880
:102B50000078401C494908704748006808B90020BF
:102B60000870002006B0BDE8F0872DE9F05F05464B
:102B70000E46300108F07AFF8146414905FB01F01D
:102B800008F074FF8246494608F026FE074638469C
:102B900008F034FF84B2204608F068FF83463946C7
:102BA00009F0A9F882464FF0834108F0A7FF81465B
:102BB00008F024FF80464FF6FF7000EA041404EB8F
:102BC000080084B22F48806940F001002D498861D7
:102BD0000846806940F0100088610846C06940F4EA
:102BE0008020C8612848406820F47F40264948601A
:102BF0000846406840F40B4048600846C06840F40E
:102C00008060C8602148406840F010001F4948605B
:102C10001C48006940F480201A4908610846006990
:102C200020F4802008611A480480001D008842F2C8
:102C30000C0108431649091D08800846008840F425
:102C4000807027E02001002000002440A402002022
:102C500028010020A800002021010020AC00002055
:102C600022010020A000002023010020A400002059
:102C700024010020250100200C0100202C0100204F
:102C800040420F00001002400010014000000140CF
:102C90000848004008800846008840F0200008806E
:102CA0000223272201210020FFF706F8BDE8F09F4C
:102CB0000548008800F0200020B10349091D09885B
:102CC000C8B200BF00207047004800406C488069CF
:102CD00040F010006A4988616A48006820F00F00DF
:102CE000684908606648806940F4007064498861FA
:102CF0000846C06840F40070C8600846C06820F408
:102D00000070C8600846406820F4404048600846AB
:102D1000406840F4004048605B4800685B490840F8
:102D2000594908600846006808600846006820F4B1
:102D300080700860081D006820F00200091D08600E
:102D40000846006820F4602008600846006840F4E7
:102D5000602008600846006840F48010086008465B
:102D6000006820F40060086047482830006820F4BC
:102D70007000454928310860084600680020086056
:102D80004148083000686FF311003F49083108607E
:102D90000846006840F007000860081F006840F01F
:102DA0000100091F08600846006840F0080008603C
:102DB00000BF3548001D006800F008000028F8D169
:102DC0003148001D006840F004002F49091D0860CB
:102DD00000BF2D48001D006800F004000028F8D155
:102DE0007047014628483030006820F01F00264A0E
:102DF0003032106010460068084310602248001D01
:102E0000006840F48000204A121D106000BF1E4878
:102E1000001F006800F002000028F8D01A4848306F
:102E2000006880B270472DE9F04F87B00A20FFF7A5
:102E3000D8FF019008F0D6F880464FF06632144B68
:102E400008F020F90022134BCDE9020108F01AF92D
:102E50000022114BCDE9040108F014F906460022C6
:102E60000E4B07F0F3FE044600220D4B07F0EEFE7A
:102E7000824608F043F80690069807B0BDE8F08F48
:102E8000001002400010014004240140FFFFF00048
:102E900066660A4000002640000059400000F03FEE
:102EA0000000B04038B50446FB4890F82400C0B19B
:102EB00014B10220009001E000200090F64A126850
:102EC000D17BF54A526810786B46012203F030F945
:102ED00010B14FF0FF3038BD9DF80010EE4841743E
:102EE00023E0ED48807A10B94FF0FF30F3E724B1CA
:102EF000E948407C08B10020EDE714B101200090C2
:102F000001E000200090E44A1268D17BE24A526856
:102F100010786B46012203F00BF910B14FF0FF302F
:102F2000D9E79DF80010DC4841740020D3E738B59C
:102F3000002419E0D8480068C07AA04204D0D648DE
:102F40000068407DA04200D10CE0D3494968087870
:102F50006B460122214603F04DF910B14FF0FF30CE
:102F600038BD00BF601CC4B2CB4840680079A042A5
:102F7000E0DC0020F4E770B504460D46C648006862
:102F8000C07AA04204D0C4480068407DA04202D16B
:102F90004FF0FF3070BDC04840680079A04202DCAD
:102FA0004FF0FF30F6E7BC49496808782B4601220C
:102FB000214603F01FF9EDE738B50446B64890F80E
:102FC0002300A04201D1002038BD14B13020009070
:102FD00001E000200090B048807C20B19DF8000006
:102FE00040F002000090AC4890F8220020B19DF81B
:102FF000000040F080000090A74A1268117DA64AA8
:10300000526810786B46012203F092F810B14FF02D
:10301000FF30D9E7A04880F823400020D4E738B536
:10302000044604F0700010B10120009005E014B1D6
:103030000020009001E040200090974A1268917CA7
:10304000954A526810786B46012203F071F820B15E
:10305000002191488172481E38BD9DF8000020F083
:1030600040018D4801730020009004F0400020B919
:103070009DF8000040F00400009004F0200020B90A
:103080009DF8000040F00200009004F0100020B90C
:103090009DF8000040F00100009004F0080020B905
:1030A0009DF8000040F0380000907B4A1268D17C07
:1030B000794A526810786B46012203F039F820B142
:1030C000002175488172481EC6E724B1082C02D041
:1030D0000020FFF771FF70488472002101753220D3
:1030E000FEF7B2FD0020B7E738B504466A48807C99
:1030F000A04201D1002038BD002C46D0664A12689B
:103100001179654A526810786B46012203F072F813
:1031100010B14FF0FF30EEE79DF8000020F02000E6
:1031200000905D4A126811795B4A526810786B46CC
:10313000012202F0FDFF10B14FF0FF30DBE703206A
:10314000FEF782FD02200090534890F8220020B143
:103150009DF8000040F0800000904F4890F8230058
:1031600020B19DF8000040F0300000904A4A1268FB
:10317000117D494A526810786B46012202F0D8FF4F
:10318000002851D04FF0FF30B5E7434A126811795B
:10319000414A526810786B46012203F02BF810B1B7
:1031A0004FF0FF30A7E73C48807A00F0010028B1DB
:1031B0009DF8000040F02000009004E09DF8000021
:1031C00020F020000090344A12681179324A526887
:1031D00010786B46012202F0ABFF10B14FF0FF30C8
:1031E00089E70320FEF730FD2B4890F8220010B14C
:1031F0008020009001E000200090274890F82300F4
:1032000020B19DF8000040F030000090224A126882
:10321000117D214A526810786B46012202F088FF26
:1032200010B14FF0FF3066E71B488474002062E75E
:1032300008B51948807A10B94FF0FF3008BD00205A
:103240000090154A1268D17B134A526810786B4679
:10325000012202F06DFF10B14FF0FF30EEE70E4A91
:10326000126851790C4A526810786B46012202F0BC
:103270005FFF10B14FF0FF30E0E7074A12681179A5
:10328000054A526810786B46012202F051FF28B1BE
:103290004FF0FF30D2E7000030010020F74890F8EF
:1032A0002400002850D00C200090F44A12681179B4
:1032B000F24A526810786B46012202F039FF10B1D1
:1032C0004FF0FF30BAE7C0200090EC48807A00F061
:1032D000010020B19DF8000040F020000090E74A76
:1032E00012681179E54A526810786B46012202F0A3
:1032F0001FFF10B14FF0FF30A0E7E048407C10B155
:103300000220009001E000200090DC4A1268D17B8E
:10331000DA4A526810786B46012202F009FF10B1B8
:103320004FF0FF308AE700200090D44A12685179AC
:10333000D24A526810786B46012202F0F9FE00284A
:1033400052D04FF0FF3079E704200090CB4A12684A
:103350001179CA4A526810786B46012202F0E8FEE1
:1033600010B14FF0FF3069E7C448807C20B9C348F2
:10337000807A00F0010010B94020009001E0602048
:103380000090BE4A12681179BC4A526810786B46A8
:10339000012202F0CDFE10B14FF0FF304EE7B748EA
:1033A000407C10B10120009001E000200090B34A61
:1033B0001268D17BB14A526810786B46012202F044
:1033C000B7FE10B14FF0FF3038E7AC4A12685179C0
:1033D000AA4A52681078A94B1033012202F0A8FEC5
:1033E00010B14FF0FF3029E7002027E770B5044601
:1033F000002624F00104A14890F8240008B1002020
:1034000070BD9E48807A10B94FF0FF30F8E79B48B6
:10341000057C807A2040994908740846007CA042C7
:1034200002D04FF0FF3600E0002614B99348007D2B
:1034300018B10120FFF736FD02E00020FFF732FD52
:103440003CB1FFF7F5FE20B18C4805744FF0FF301A
:10345000D6E73046D4E738B504468848807A10B9B4
:103460004FF0FF3038BDBC2C02DB0120009015E08E
:10347000622C02DB0220009010E02A2C02DB0320E9
:1034800000900BE0142C02DB0420009006E00A2CD4
:1034900002DB0520009001E0062000907748C07A0A
:1034A0009DF80010884201D10020DBE7734A1268C2
:1034B0009178724A526810786B46012202F038FE09
:1034C00010B14FF0FF30CDE79DF800106B48C1728E
:1034D0000020C7E738B50446282C02DD4FF0FF3046
:1034E00038BDDCB90020FFF767FD00208DF8000033
:1034F00007208DF80100614A1268917C5F4A52688A
:1035000010786B46022202F013FE10B14FF0FF302C
:10351000E6E70021594801750020E1E70120FFF7A7
:103520004BFD20208DF80000012C06D100208DF8E5
:1035300001000520FFF78FFF17E0052C06DC0120B6
:103540008DF801000520FFF786FF0EE0142C06DC45
:1035500002208DF801000A20FFF77DFF05E003201F
:103560008DF801001420FFF776FF9DF80100072178
:1035700001EB8010C0B28DF80100404A1268917CC6
:103580003E4A526810786B46022202F0D1FD10B11B
:103590004FF0FF30A4E70821384881720021017301
:1035A000012101750020FFF721FF002098E738B5C1
:1035B00004463248807A10B94FF0FF3038BD2F48AA
:1035C00090F8240010B14FF0FF30F7E72B48007D52
:1035D00050B134B1282C04DCE0B2FFF77BFF0020AF
:1035E000ECE70020FFF776FF042C01DA042404E066
:1035F000B4F57A7F01DD4FF47A744FF47A7090FB62
:10360000F4F0401EC0B200901C4A126851781B4A68
:10361000526810786B46012202F08AFD10B14FF01B
:10362000FF30CBE79DF80000401C4FF47A7191FB0E
:10363000F0F081B21148C1810146C9894810FFF7F5
:103640000AFF0020BAE738B504460C48807A10B962
:103650004FF0FF3038BD022C06D0042C07D0082CC8
:1036600008D0102C0FD10BE0002000900EE00820B5
:1036700000900BE01020009008E0000030010020D6
:103680001820009002E04FF0FF30E3E700BFF94858
:10369000407A9DF80010B0EBE10F01D10020D9E78E
:1036A000F44A1268D179F34A526810786B460122C5
:1036B00002F03EFD10B14FF0FF30CBE79DF8000067
:1036C000C110EC4841720020C4E738B50446E9480F
:1036D000807A10B94FF0FF3038BDFA2C09D0B4F51C
:1036E000FA7F09D0B4F57A7F09D0B4F5FA6F0CD11E
:1036F00008E0002000900BE00820009008E0102077
:10370000009005E01820009002E04FF0FF30E3E762
:1037100000BFD848007A9DF80010B0EBE10F01D14E
:103720000020D9E7D34A12689179D24A52681078BA
:103730006B46012202F0FCFC10B14FF0FF30CBE7EA
:103740009DF80000C010CB4908720020C4E71CB5EA
:1037500080208DF80000C74A1268917CC54A5268E3
:1037600010786B46012202F0E3FC10B14FF0FF30FD
:103770001CBD6420FEF768FA00208DF80000BD4AE9
:103780001268917CBB4A526810786B46012202F0A5
:10379000CFFC10B14FF0FF30EAE7B64A1268917DD6
:1037A000B44A526810786B46062202F023FD10B12D
:1037B0004FF0FF30DCE79DF80500C007400F9DF893
:1037C000031001F0010140EA41009DF8011001F0F1
:1037D000010140EA010494B1012C03D10121A54863
:1037E000C17431E0022C03D10021A248C1742BE046
:1037F0002146A1A004F0D6FE4FF0FF30B8E79D4A65
:103800001268D1789B4A526810786B46012202F008
:10381000F1FC10B14FF0FF30AAE79DF8000000F076
:103820000F042CB99E4804F0BDFE4FF0FF309FE717
:10383000042C06D19BA004F0B5FE01218D48C17473
:1038400002E000218B48C174FF218A488172FF2069
:1038500088490872FF2187484172C1724FF6FF7193
:10386000C181FF21017481740121017380F822104C
:10387000002180F823104175017516300160416008
:103880008160163880F8241080F82510C1844FF428
:10389000FA60FFF71AFF10B14FF0FF3068E702201F
:1038A000FFF7D1FE10B14FF0FF3061E72A20FFF79C
:1038B000D2FD10B14FF0FF305AE73220FFF777FE0C
:1038C00010B14FF0FF3053E70020FFF78FFD10B12C
:1038D0004FF0FF304CE70020FFF706FC10B14FF02F
:1038E000FF3045E70020FFF79AFB002040E77047D4
:1038F0007CB504460D465F48807A00F0700010B930
:103900004FF0FF307CBD5B4A1268117B594A526808
:1039100010786B46062202F06DFC10B14FF0FF30BC
:10392000F0E79DF801009DF8001040EA012000B288
:1039300020809DF803009DF8021040EA012000B2AB
:1039400060809DF805009DF8041040EA012000B257
:10395000A08015B12846FFF7CAFF0020D2E77CB54A
:1039600004460D464348807A00F0080010B94FF035
:10397000FF307CBD3F4A1268517B3E4A5268107846
:103980006B46062202F036FC10B14FF0FF30F0E734
:103990009DF801009DF8001040EA012000B220804F
:1039A0009DF803009DF8021040EA012000B26080FB
:1039B0009DF805009DF8041040EA012000B2A080A7
:1039C00015B12846FFF793FF0020D2E72DE9FE4FFF
:1039D00005460C462748807A18B94FF0FF30BDE8FD
:1039E000FE8F244A1268917B224A5268107802ABFB
:1039F000022202F0FFFB10B14FF0FF30EFE79DF81D
:103A000009009DF8081040EA012006B214B12046D2
:103A1000FFF76DFF17494968C88808F027F815496E
:103A200001904968B1F9080008F008F8834630466B
:103A300008F004F85946009008F068F982460199A8
:103A400007F0CAFE81461F4907F058FE80464FF036
:103A50008F4108F053F8074607F0B4FF28600020B4
:103A6000BDE710B588B004461CB94FF0FF3008B070
:103A700010BD29E030010020556E737570706F72B3
:103A800074656420736F6674776172652070726FFD
:103A900064756374207265762025642E0A00000028
:103AA000A4D7000848616C662073656E73697469F9
:103AB00076697479207061727420666F756E642EF9
:103AC0000D0A000000000C42206830B9606820B97F
:103AD000A06810B9002008B010BDFA4949680878FC
:103AE00006AB0322114602F085FB10B14FF0FF3008
:103AF000F1E79DF81800082101EB201000F00F00FD
:103B0000ADF800009DF8190001EB201000F00F0047
:103B1000ADF802009DF81A0001EB201000F00F0034
:103B2000ADF8040020684100BDF90000403091FB71
:103B3000F0F000B2ADF8100060684100BDF902007D
:103B4000403091FBF0F000B2ADF81200A0684100E7
:103B5000BDF90400403091FBF0F000B2ADF8140064
:103B6000D8494968087806AB0622114602F042FBA4
:103B700010B14FF0FF30AEE79DF819009DF8181016
:103B800040EA012000B2ADF808009DF81B009DF846
:103B90001A1040EA012000B2ADF80A009DF81D009D
:103BA0009DF81C1040EA012000B2ADF80C00BDF8F1
:103BB0001000BDF80810084400B2ADF81000BDF8C0
:103BC0001200BDF80A10084400B2ADF81200BDF8AA
:103BD0001400BDF80C10084400B2ADF81400BDF894
:103BE0001000000A8DF81800BDF81000C0B28DF862
:103BF0001900BDF81200000A8DF81A00BDF8120075
:103C0000C0B28DF81B00BDF81400000A8DF81C002E
:103C1000BDF81400C0B28DF81D00AA4949680878A3
:103C200006AB0622114602F083FA10B14FF0FF30C6
:103C300051E700204FE70146A248007A30B1012841
:103C400007D0022809D003280FD10AE0FA20088003
:103C50000EE04FF4FA7008800AE04FF47A700880A2
:103C600006E04FF4FA60088002E00020088000BF00
:103C700000BF0020704701469248407A30B10128C9
:103C800007D0022808D003280CD108E002200870D1
:103C90000BE00420087008E00820087005E0102000
:103CA000087002E04FF0FF30704700BF8548C07CCD
:103CB00018B108784006000E08700020F4E70146AD
:103CC0008048C07A082817D2DFE800F01704070AF6
:103CD0000D101318BC20088013E06220088010E04B
:103CE0002A2008800DE0142008800AE00A200880BD
:103CF00007E00520088004E000BF00BF0020088026
:103D000000BF00BF0020704701466E4890F82400B5
:103D100010B14FF0FF3070476A48C089088000201A
:103D2000F9E7014600200880401E704701464FF029
:103D3000FF30704701466348007A30B1012807D050
:103D4000022808D003280CD108E05F4808600BE087
:103D50005E48086008E05E48086005E05D4808606D
:103D600002E04FF0FF30704700BF0020FBE7014644
:103D70005448407A30B1012808D002280AD00328DC
:103D800010D10BE04FF4804008800EE041F69C70AB
:103D900008800AE04FF48050088006E04FF400608D
:103DA000088002E04FF0FF30704700BF4548C07CFC
:103DB00010B10888401008800020F5E7014641480E
:103DC000007C08700020704701463E48807A10B1A0
:103DD0000120087001E0002008700020704738B50D
:103DE00004463848807A10B94FF0FF3038BD354A64
:103DF0001268117C334A526810786B46022202F036
:103E0000F9F910B14FF0FF30F0E79DF801009DF88F
:103E1000001040EA012000B220800020E6E72DE9F2
:103E2000FE4F0746884692461D46DDF830B0002614
:103E30000024244890F8240010B1601EBDE8FE8FD5
:103E4000002028701F48807A10B94FF0FF30F5E746
:103E50001C48007C10B94FF0FF30EFE71948007C98
:103E600000F0400008B1B01CC6B21648007C00F05B
:103E7000200008B1B01CC6B21248007C00F010004F
:103E800008B1B01CC6B20F48007C00F0080008B1B1
:103E9000B01DC6B20B4A1268917A0A4A526810786D
:103EA0006B46022202F0A6F910B14FF0FF30C5E7D1
:103EB0009DF801009DF8001040EA0129B1450BDA98
:103EC0000020BBE7300100200000034300008342D4
:103ED0003333034233338341FC4840684088B9EBB5
:103EE000600F17DDF94A1268517CF84A5268107861
:103EF0006B46012202F07EF910B14FF0FF309DE7D2
:103F00009DF8000000F0100020B1FFF791F96FF06C
:103F1000010093E75046FFF7EAFCEC4A1268D17AB9
:103F2000EA4A526810786B46324602F063F910B1E3
:103F30004FF0FF3082E799FBF6F0401E8BF800004F
:103F400000202870B4422AD0E048007C00F008002D
:103F500028B3601C1DF800001DF8041040EA012081
:103F600000B2A8F80000E01C1DF80010A01C1DF80D
:103F7000000041EA002000B2A8F80200601D1DF810
:103F80000010201D1DF8000041EA002000B2A8F832
:103F90000400287840F008002870A01D84B2B442C4
:103FA00013D0CA48007C00F0400070B1601C1DF8BE
:103FB00000001DF8041040EA012000B23880287883
:103FC00040F040002870A01C84B2B44213D0BF4817
:103FD000007C00F0200070B1601C1DF800001DF88E
:103FE000041040EA012000B27880287840F02000D8
:103FF0002870A01C84B2B44213D0B448007C00F0F6
:10400000100070B1601C1DF800001DF8041040EA9B
:10401000012000B2B880287840F010002870A01C61
:1040200084B200200AE7F8B504460F461646A748B2
:1040300090F8240010B94FF0FF30F8BDA348807A03
:1040400010B94FF0FF30F8E7A04A1268917A9F4A02
:10405000526810786B46022202F0CCF810B14FF093
:10406000FF30EAE79DF801009DF8001040EA0125C5
:10407000A54203DA00203070401EDEE79348406816
:104080004088B5EB600F17DD904A1268517C8F4A6B
:10409000526810786B46012202F0ACF810B14FF074
:1040A000FF30CAE79DF8000000F0100020B1FFF7D4
:1040B000BFF86FF00100C0E7E2B2844B1B68D97A09
:1040C000824B5B6818783B4602F094F810B14FF0D1
:1040D000FF30B2E795FBF4F0401E30700020ACE7F3
:1040E00001467A4880F82210002070477CB50546CA
:1040F00076494968087801AB04220D2102F07AF86C
:1041000008B107207CBD9DF80700C0F301109DF8A1
:10411000041001F0E00140EAE1008DF800009DF894
:104120000700C0F381009DF8051001F0E00140EAAE
:10413000E1008DF801009DF8070000F003009DF8F4
:10414000061001F0E00140EAE1008DF802000024D1
:104150001CE01DF8040018B9002045F8240013E005
:104160005B4845F8240006E055F82400594907F05B
:10417000C5FC45F824001DF80400401EC0B20DF82F
:1041800004000028F0D100BF601CC4B2032CE0DBA7
:104190000020B7E72DE9FE4F06460F46002568468A
:1041A000FFF7A4FF002442E056F8240057F824103B
:1041B000A0EB010ABAF1000F01DB514601E0CAF1A0
:1041C0000001084607F03AFC83464FF08F4107F0A4
:1041D00003FB80465DF82400002107F0BFFB16D0EA
:1041E0005DF82410404607F0F7FA82464FF07E5102
:1041F00007F08CFD814629F0004A3748416A504655
:1042000007F048FD12D20120A04005430EE03248DD
:10421000C169404607F03EFC05D32F48016A40467D
:1042200007F038FD02D20120A0400543641C032C96
:10423000BADB2846BDE8FE8F2DE9FC5F06460F4637
:10424000002522494968087801AB03220D2101F0BD
:10425000D1FF10B10720BDE8FC9F9DF8040000F0DD
:104260001F008DF804009DF8050000F01F008DF878
:1042700005009DF8060000F01F008DF806000024E0
:1042800062E056F8240057F82410A0EB010BBBF1B4
:10429000000F01DB594601E0CBF10001084607F0B1
:1042A000CDFB4FF08F41009007F096FA814601A8B0
:1042B000005DC0B30849086807F0D8FB834659463B
:1042C000064807F089FA80460FE000003001002020
:1042D0007B14AE3E1D5A843F14BF000800B04C450D
:1042E000FE49404607F00AFC804601A8005D401EDA
:1042F000C0B201A908550028F2D14146484607F04E
:104300006BFA83464FF07E5107F000FD82462AF09B
:10431000004BF3488169584607F0BCFC13D20120DA
:10432000A04005430FE0FFE7ED480169484607F06C
:10433000B1FB05D3EA484169484607F0ABFC02D21D
:104340000120A0400543641C032C9ADB284682E729
:104350002DE9F04F87B005460C46914601208DF8B7
:10436000100000208DF81100DE4A1268917CDD4AB1
:104370005268107804AB022201F0DAFE20B14FF04F
:10438000FF3007B0BDE8F08FC820FDF75DFC0020CE
:104390008DF81000D34A1268D17BD24A5268107847
:1043A00004AB012201F0C4FE10B14FF0FF30E8E78A
:1043B000CC4A12685179CB4A5268107804AB01227A
:1043C00001F0B6FE10B14FF0FF30DAE7C54A1268CF
:1043D000917CC44A5268107804AB012201F0A8FE17
:1043E00010B14FF0FF30CCE7BE4A1268D17DBD4A14
:1043F0005268107804AB012201F09AFE10B14FF020
:10440000FF30BEE7B74A12681179B64A5268107891
:1044100004AB012201F08CFE10B14FF0FF30B0E789
:104420000C208DF81000AF4A12681179AD4A52681D
:10443000107804AB012201F07BFE10B14FF0FF3089
:104440009FE70F20FDF700FCA648806A407A8DF8B0
:104450001000A44A12689178A24A5268107804ABFE
:10446000012201F065FE10B14FF0FF3089E79D4851
:10447000806A007A8DF810009A4A12685178994A39
:104480005268107804AB012201F052FE10B14FF0D7
:10449000FF3076E7B9F1000F07D09248806A807A42
:1044A00040F0E0008DF8100004E08E48806A807AC9
:1044B0008DF810008B4A126891798A4A52681078F8
:1044C00004AB012201F034FE10B14FF0FF3058E789
:1044D000B9F1000F07D08348806AC07A40F0E0004D
:1044E0008DF8100003E07E48C07A8DF810007D4AF8
:1044F0001268D1797B4A5268107804AB012201F02E
:1045000017FE10B14FF0FF303BE7B9F1000F02D0BA
:10451000C820FDF799FB40208DF81000714A126801
:104520001179704A5268107804AB012201F000FE44
:1045300010B14FF0FF3024E778208DF81000694A61
:1045400012685179674A5268107804AB012201F071
:10455000EFFD10B14FF0FF3013E761498889FDF797
:1045600073FB00208DF810005E4A126851795D4A95
:104570005268107804AB012201F0DAFD10B14FF05F
:10458000FF30FEE6574A1268917A564A5268107810
:1045900004AB022201F02EFE10B14FF0FF30F0E626
:1045A0009DF811009DF8101040EA012B0C209BFB98
:1045B000F0F0C6B20020A86068602860A06060606B
:1045C0002060824665E0474A1268D17A454A5268BF
:1045D000107804AB0C2201F00DFE10B14FF0FF304B
:1045E000CFE69DF811009DF8101040EA012000B2BE
:1045F000ADF808009DF813009DF8121040EA012064
:1046000000B2ADF80A009DF815009DF8141040EABC
:10461000012000B2ADF80C00BDF908102068084474
:104620002060BDF90A10606808446060BDF90C1094
:10463000A0680844A0609DF817009DF8161040EA95
:10464000012000B2ADF800009DF819009DF8181087
:1046500040EA012000B2ADF802009DF81B009DF871
:104660001A1040EA012000B2ADF80400BDF90010B4
:10467000286808442860BDF902106868084468602A
:10468000BDF90410A8680844A8600AF1010000F010
:10469000FF0AB24597DB1248D0F800C02868C1175E
:1046A000090441EA1041070462460023384603F03A
:1046B00054FF32460023CDE9020103F04EFF28608B
:1046C0000748D0F800C06868C117090441EA1041E2
:1046D000070462460023384606E0000054E3853FA5
:1046E00014BF00083001002003F037FF32460023DA
:1046F000CDE9020103F031FF6860FE48D0F800C048
:10470000A868C117090441EA104107046246002362
:10471000384603F022FF32460023CDE9020103F0C0
:104720001CFFA860F348D0F804C02168C817000433
:1047300040EA11480F04624600233846414603F020
:104740000CFF32460023CDE9020103F006FF206092
:10475000E848D0F804C06068C117090441EA104174
:10476000070462460023384603F0F7FE3246002372
:10477000CDE9020103F0F1FE6060DE48D0F804C02C
:10478000A068C117090441EA1041070462460023EA
:10479000384603F0E2FE32460023CDE9020103F081
:1047A000DCFEA060A068002804DDA068A0F58030D1
:1047B000A06003E0A06800F58030A0600020E0E584
:1047C00038B50446CC4890F82400A04201D100201E
:1047D00038BD24B3C84890F8250010B94FF0FF3019
:1047E000F6E70020FEF75EFB0020FEF77DFCC249E5
:1047F000C88CFEF7DCFE00200090BF4949680878AD
:104800006B460122232101F093FC0121BA4880F874
:1048100024100120FEF746FBFEF70AFD13E00020FE
:10482000FEF740FBB448007C0090B3494968087823
:104830006B460122232101F07BFC0021AE4880F869
:104840002410FEF7F5FC0020C2E72DE9F04F8DB0F3
:1048500083460F4602200C90A74890F8240020B110
:104860000020FFF7ADFF012600E0002603A8FFF7B8
:10487000E2F905A8FFF7FFF901A8FFF720FA02A85F
:10488000FFF742FA9C4890F80AA004A8FFF796FAAE
:10489000002407E0002239465846FFF759FD00B9C9
:1048A00002E0641C022CF5DB00BF022C01D10025C4
:1048B00028E0002407E0012206A909A8FFF748FD27
:1048C00000B902E0641C022CF5DB00BF022C01D110
:1048D000002517E006A93846FFF75CFC00F0FF084A
:1048E00009A95846FFF7A8FC00F0FF090025B9F117
:1048F000000F01D145F00105B8F1000F01D145F0DD
:10490000020500BFFF207C490872FF217A484172EE
:10491000C1724FF6FF71C181FF21817201740121C3
:104920000173BDF80C00FEF7D0FE9DF81400FEF7F1
:104930008AFEBDF80400FEF78EFDBDF80800FEF704
:1049400036FE5046FEF76BFB9DF81000FEF74EFD5D
:1049500016B10120FFF734FF28460DB0BDE8F08FF7
:10496000F8B504460D46164616B94FF0FF30F8BDAF
:104970006148807A10B94FF0FF30F8E720128DF8C7
:104980000000E0B28DF801009DF8010028445A496A
:1049900049684989884202DD4FF0FF30E7E7564A0F
:1049A0001268117E544A526810786B46022201F058
:1049B000BFFB10B14FF0FF30D9E7EAB24E4B1B6896
:1049C000597D4D4B5B681878334601F0B1FB10B14F
:1049D0004FF0FF30CBE70020C9E7F8B504460D469D
:1049E000164616B94FF0FF30F8BD4348807A10B92B
:1049F0004FF0FF30F8E720128DF80000E0B28DF89C
:104A000001009DF8010028443B49496849898842D2
:104A100002DD4FF0FF30E7E7374A1268117E364A71
:104A2000526810786B46022201F082FB10B14FF001
:104A3000FF30D9E7EAB2304B1B68597D2E4B5B68DB
:104A40001878334601F0D6FB10B14FF0FF30CBE7BA
:104A50000020C9E72DE9F04385B005460E46904693
:104A60009946254890F8250020B14FF0FF3005B059
:104A7000BDE8F08316B94FF0FF30F8E7002423E0DB
:104A8000281B102801DD102000E0281B87B23219F6
:104A900039462046FFF764FF10B14FF0FF30E6E7DC
:104AA00001AA39462046FFF798FF10B14FF0FF30BA
:104AB000DDE730193A4601A903F043FE10B16FF06B
:104AC0000100D4E7E01984B2AC42D9DB4FEA2820D8
:104AD0008DF8000008F0FF008DF80100064A12680A
:104AE000917E054A526810786B46022201F020FB45
:104AF00038B103E014BF0008300100204FF0FF3050
:104B0000B5E701218A4880F82510A0F826900020FA
:104B1000ADE70146864890F82400087000207047F1
:104B200002464FF0FF30704701464FF0FF307047AC
:104B3000F8B505460F461446002C70D0B5F5FF5F5A
:104B400001DDFF2605E0202D01DA012601E0C5F395
:104B5000471607B90127282C02DD4FF0FF30F8BDBA
:104B60007348407D28BB724890F8240038B100207B
:104B7000FFF726FE01216E4880F8201003E0002197
:104B80006B4880F820106A481630FFF754F86848E0
:104B90001830FFF770F866481A30FFF790F864484D
:104BA0001C30FFF7B1F86248817A81771F30FFF738
:104BB00005F90020FEF776F90020FEF78BFC0020B7
:104BC0008DF800005A4A12689178594A5268107854
:104BD0006B46012201F0ACFA10B14FF0FF30BEE796
:104BE00040208DF80000524A1268D17B504A52682A
:104BF00010786B46012201F09BFA00B165E08DF858
:104C000000608DF801704A4A1268117A484A526869
:104C100010786B46022201F08BFA08B155E047E0AC
:104C20000520FDF711F84248407A072101EBC0004A
:104C3000C0B28DF800003E4A1268D1793C4A5268F1
:104C400010786B46012201F073FA00B13DE020209C
:104C50008DF80000012C03D100208DF801000EE03A
:104C6000052C03DC01208DF8010008E0142C03DC86
:104C700002208DF8010002E003208DF801009DF86C
:104C80000100072101EB8010C0B28DF80100284A15
:104C90001268917C264A526810786B46022201F015
:104CA00047FA00B111E0012121484175002056E783
:104CB0001F4A1632002103E0505C00B105E0491C98
:104CC0000C29F9D34FF0FF3049E7FF20184908724B
:104CD000FF2117484172C1724FF6FF71C181FF2158
:104CE00081720174012101730146887FFEF797F9F3
:104CF0000F49C88AFEF7E9FC0D49087EFEF7A3FCC0
:104D00000B49488BFEF7A7FB0949888BFEF74FFC40
:104D10000749C87FFEF76AFB054890F8200010B1EC
:104D20000120FFF74DFD002101484175002016E7E5
:104D30003001002010B5C8234FF48062F74940F6D7
:104D4000F630FFF787FE10BD10B586B00446F4A01C
:104D500000680390F3A000680290F3A0006801903F
:104D6000F2A00068009004F0030003A9085C8DF82D
:104D7000140003A8C4F3C101405C8DF8150003A81A
:104D8000C4F38111405C8DF8160004F0030002A901
:104D9000085C8DF8100002A8C4F3C101405C8DF8D6
:104DA000110002A8C4F38111405C8DF8120005AA1D
:104DB000032140F22640FFF7D3FD18B14FF0FF303A
:104DC00006B010BD04AA032140F22A40FFF7C8FD37
:104DD00010B14FF0FF30F3E7019805900098049070
:104DE00004F0040058B19DF8140040F001008DF863
:104DF00014009DF8100040F001008DF8100004F040
:104E0000200058B19DF8150040F001008DF8150004
:104E10009DF8110040F001008DF8110004F480703D
:104E200058B19DF8160040F001008DF816009DF86D
:104E3000120040F001008DF8120005AA03214FF482
:104E40008860FFF78DFD10B14FF0FF30B8E704AA7E
:104E5000032140F23140FFF783FD10B14FF0FF30E6
:104E6000AEE7B34804810020AAE71FB50446B04866
:104E7000007A00F0030054F820000190AC48007A5A
:104E800000F0040010B1019840420190A848007A57
:104E9000C0F3C10054F820000290A548007A00F049
:104EA000200010B1029840420290A148007AC0F35D
:104EB000811054F8200003909D48008900F4807010
:104EC00010B10398404203909A49019880FB010178
:104ED000800F40EA810001909649029880FB011002
:104EE000820042EA917002909249039880FB01107F
:104EF000820042EA917003900198000E8DF8000044
:104F00000198000C8DF801000198000A8DF802004C
:104F10000198C0B28DF803006A4604214FF4747002
:104F2000FFF71EFD18B14FF0FF3004B010BD02981E
:104F3000000E8DF800000298000C8DF80100029818
:104F4000000A8DF802000298C0B28DF803006A468C
:104F500004214FF47570FFF703FD10B14FF0FF30DF
:104F6000E3E70398000E8DF800000398000C8DF81D
:104F700001000398000A8DF802000398C0B28DF872
:104F800003006A4604214FF47670FFF7E9FCCCE792
:104F900070B588B0064601A8FEF7E9FEBDF804002A
:104FA0000021C90341EA5045C4036148007A00F07A
:104FB000030056F8200005905D48007A00F00400D8
:104FC00010B10598404205905948007AC0F3C100DD
:104FD00056F8200006905648007A00F0200010B1E4
:104FE0000698404206905248007AC0F3811056F865
:104FF000200007904E48008900F4807010B1079897
:10500000404207900598C117A0FB042301FB04311F
:1050100000FB0510810041EA927005900698C117C7
:10502000A0FB042301FB043100FB0510810041EAD1
:10503000927006900798C117A0FB042301FB04316E
:1050400000FB0510810041EA927007900020059056
:10505000069007900598000E8DF808000598000C42
:105060008DF809000598000A8DF80A000598C0B26D
:105070008DF80B000698000E8DF80C000698000CB9
:105080008DF80D000698000A8DF80E000698C0B243
:105090008DF80F000798000E8DF810000798000C8F
:1050A0008DF811000798000A8DF812000798C0B219
:1050B0008DF8130002AA0C214FF42570FFF750FC65
:1050C00008B070BD30B585B004461BA207CA02AB5C
:1050D00007C3C82C03DD4FF0FF3005B030BDC8203A
:1050E00090FBF4F0401E85B2280A8DF80000E8B26B
:1050F0008DF801006A46022140F21620FFF730FCCD
:1051000010B14FF0FF30E8E702AA0C2140F6C120B1
:10511000FFF726FCB0B14FF0FF30DEE73CBF0008E0
:105120004CCD6C000CC92C00365676002646660025
:105130009403002009E3CA02FEF2ABC4AAF1DFDF48
:10514000BBAFDFDFF74884810020C6E70146F548A2
:1051500080890880002070472DE9FC4706460F46ED
:1051600006F0070010B1B7F5C86F03DD4FF0FF3050
:10517000BDE8FC87384606F079FC8146EA4906F02E
:105180002BFB80466846FEF776FD9DF8000002285E
:1051900006D0042816D0082826D0102848D135E09B
:1051A0004FF08D41404606F0A9FC814606F026FCF2
:1051B00084B2DE49404606F0A1FC814606F01EFCA2
:1051C00085B238E04FF08C41404606F097FC8146AE
:1051D00006F014FC84B2D649404606F08FFC8146A6
:1051E00006F00CFC85B226E04FF08B41404606F0FD
:1051F00085FC814606F002FC84B2CE49404606F0AA
:105200007DFC814606F0FAFB85B214E04FF08A413E
:10521000404606F073FC814606F0F0FB84B2C649B6
:10522000404606F06BFC814606F0E8FB85B202E0E2
:105230004FF0FF309CE700BF20128DF80400E0B271
:105240008DF8050028128DF80600E8B28DF80700E9
:1052500006F00100A0B101AA02214FF4EA70FFF7A5
:105260007FFB10B14FF0FF3082E70DF10602022103
:105270004FF49270FFF774FB10B14FF0FF3077E7F7
:1052800006F00200A0B101AA02214FF4EC70FFF772
:1052900067FB10B14FF0FF306AE70DF10602022103
:1052A0004FF49470FFF75CFB10B14FF0FF305FE7F5
:1052B00006F00400A0B101AA02214FF4EE70FFF73E
:1052C0004FFB10B14FF0FF3052E70DF10602022103
:1052D0004FF49670FFF744FB10B14FF0FF3047E7F3
:1052E000002045E738B504460020009004F0010096
:1052F00020B19DF8000040F03000009004F0020062
:1053000020B19DF8000040F00C00009004F0040073
:1053100020B19DF8000040F0030000906A46012192
:105320004FF4A470FFF71CFB38BD38B50446012CC0
:1053300001DA012402E0042C00DD0424601EC0B266
:1053400000906A46012140F24F10FFF709FB38BD7B
:1053500038B50446052094FBF0F085B228128DF88C
:105360000000E8B28DF801006A4602214FF4EF70A8
:10537000FFF7F6FA38BD38B50446052094FBF0F087
:1053800085B228128DF80000E8B28DF801006A4657
:1053900002214FF4ED70FFF7E3FA38BDF8B505468A
:1053A0000E464FF47A7095FBF0F000FB06F4200EE9
:1053B0008DF80000200C8DF80100200A8DF8020005
:1053C000E0B28DF803006A4604214FF4AE70FFF797
:1053D000C7FAF8BD38B50446052094FBF0F084B256
:1053E00020128DF80000E0B28DF801006A4602211B
:1053F0004FF4AD70FFF7B4FA38BD38B50446052058
:1054000094FBF0F084B220128DF80000E0B28DF829
:1054100001006A4602214FF4AC70FFF7A1FA38BDD3
:1054200038B5044614B94FF0FF3038BD6A46042140
:105430004FF45870FFF7D1FA10B14FF0FF30F4E796
:105440009DF8000000069DF8011040EA01409DF81B
:10545000021040EA01209DF803100843206000205C
:10546000E3E738B50446200E8DF80000200C8DF8D7
:105470000100200A8DF80200E0B28DF803006A46B0
:1054800004214FF45870FFF76BFA38BD38B5044665
:1054900014B94FF0FF3038BD6A4604214FF47170E3
:1054A000FFF79BFA10B14FF0FF30F4E79DF80000D2
:1054B00000069DF8011040EA01409DF8021040EA04
:1054C00001209DF80310084300EB8000800020605D
:1054D0000020E0E738B504461420B4FBF0F4200EB9
:1054E0008DF80000200C8DF80100200A8DF80200D4
:1054F000E0B28DF803006A4604214FF47170FFF7A3
:105500002FFA38BD38B50446C4B120208DF800000C
:1055100028208DF8010030208DF8020038208DF809
:10552000030010E0940300200000484300004046C0
:105530000000C045000040450000C044A3220421F3
:10554000684603F02AF96A46042140F69E20FFF7D8
:1055500007FAFDF76DFE38BD38B5044664B1C020CA
:105560008DF80000C2208DF80100C4208DF80200E3
:10557000C6208DF8030004E08B220421684603F066
:105580000CF96A46042140F69820FFF7E9F9FDF787
:105590004FFE38BD3EB504466CB1FDA1D1E90020F7
:1055A0008968CDE9002002916A4609214FF497608D
:1055B000FFF7D6F93EBDF9A2D2E900109268CDE915
:1055C000010200916A4609214FF49760FFF7C8F97C
:1055D000F0E73EB5044602208DF80000CA208DF8A1
:1055E0000100E3208DF8020009208DF803006A46CF
:1055F00004216820FFF7B4F9A3208DF8000004F01F
:10560000400048B1C0208DF80100C8208DF802008C
:10561000C2208DF8030006E0A3208DF801008DF86C
:1056200002008DF8030004F4C07048B1C4208DF866
:105630000400CC208DF80500C6208DF8060006E099
:10564000A3208DF804008DF805008DF80600A32036
:105650008DF807008DF808008DF809006A460A21C8
:1056600040F6A720FFF77CF904F0030018B12020D2
:105670008DF8000002E0D8208DF800006A46012174
:1056800040F6B620FFF76CF904F0200018B10120B5
:10569000FFF780FF02E00020FFF77CFF04F4C070FA
:1056A00008B304F4807060B1B2208DF800008B2044
:1056B0008DF80100B6208DF802009B208DF80300C4
:1056C0000BE0B0208DF8000080208DF80100B420A0
:1056D0008DF8020090208DF803006A46042140F600
:1056E000A220FFF73DF904F0010020B3F8208DF867
:1056F00000006A4601214FF40B60FFF731F9FA21EF
:105700000720FFF729FD0720FFF7ECFD0120FFF739
:105710000CFE6420FFF71CFE4FF4FA70FFF72BFE1F
:10572000C821A148FFF73AFE2820FFF753FE0A20C0
:10573000FFF763FE08E0D8208DF800006A460121DB
:105740004FF40B60FFF70CF904F0020018B1D920F8
:105750008DF8000002E0D8208DF800006A46012193
:1057600040F23D70FFF7FCF804F0040018B101208E
:10577000FFF7F2FE02E00020FFF7EEFE04F010005B
:1057800018B10120FFF7BEFE02E00020FFF7BAFECD
:1057900044F0080085494881FDF74AFD002083490F
:1057A000887304F0400018B10846807B801D887320
:1057B00004F4C07020B17D48807B801D7B498873D4
:1057C00004F0140020B17948807B10307749887349
:1057D00004F0030020B17548807B001D7349887375
:1057E00000203EBD01467148408908800020704776
:1057F0002DE9F0410446E07800F0C006E07800F0C2
:105800003F05607800F0010098B1EF102846E917D5
:1058100005EB5171C910A5EBC101491C01F0FF084E
:105820006248006820B161484146026838469047A6
:1058300000BF607800F0080030B15C48406818B1E3
:10584000B0115A4A516888470020BDE8F08110B570
:1058500086B0044656A207CA03AB07C357A207CABD
:105860008DE80700012C09D0022C0ED103AA0B21D0
:1058700040F68220FFF774F806B010BD6A460B218F
:1058800040F68220FFF76CF8F6E74FF0FF30F3E7C1
:105890002DE9F04F8DB00746884615469946DDE95B
:1058A000166B0024002030804049887B5A4605A9A9
:1058B000FEF7B9FB18B1601E0DB0BDE8F08F3B4894
:1058C000807A00F01400002861D09DF814000006D2
:1058D0009DF8151040EA01409DF8161040EA01209D
:1058E0009DF81710084328609DF8180000069DF8E1
:1058F000191040EA01409DF81A1040EA01209DF875
:105900001B10084368609DF81C0000069DF81D10E0
:1059100040EA01409DF81E1040EA01209DF81F104A
:105920000843A8609DF8200000069DF8211040EA79
:1059300001409DF8221040EA01209DF82310084301
:10594000E86004F11000C4B228680014019068688F
:1059500000140290A86800140390E86800140490F2
:1059600001984043029901FB0100039901FB0100EA
:10597000049901FB010ABAF1706F02DBBAF1885F8A
:1059800022DDFDF755FC00203080401E94E721E029
:10599000B8AAB38DB4980D355D000000B8AAAAAAC4
:1059A000B088C3C5C700000009E3CA029403002001
:1059B000D8B1B9F38BA391B609B4D900DAB1B9F370
:1059C0008BA391B6DAB4DA00B6F9000040F4807027
:1059D000308000BF3448807A00F0400020B305A931
:1059E000601C085C095D40EA012000B2A8F80000D4
:1059F00005A9E01C095C05AAA01C105C41EA002076
:105A000000B2A8F8020005A9601D095C201D105C09
:105A100041EA002000B2A8F80400A01DC4B2B6F903
:105A2000000040F0080030801F48408900F4C0703A
:105A300008B305A9601C085C095D40EA012000B2BA
:105A4000388005A9E01C095C05AAA01C105C41EA8D
:105A5000002000B2788005A9601D095C201D105C43
:105A600041EA002000B2B880A01DC4B2B6F900001F
:105A700040F0700030800C48807A00F0030018B1CC
:105A800005A90819FFF7B4FE4846FDF730FF0020CE
:105A900012E70146044801600020704701460248B1
:105AA00041600020704700009403002010B5FA48C0
:105AB000406840F48070F8494860F848C06940F098
:105AC0000100F649C8610846806940F00400886119
:105AD0000846806940F008008861F148006820F0BD
