:020000040800F2
:10000000A007002095010008990100089B01000845
:100010009D0100089F010008A101000800000000E8
:10002000000000000000000000000000A301000824
:10003000A501000800000000A7010008A9010008B0
:10004000AB010008AB010008AB010008AB010008E0
:10005000AB010008AB010008AB010008AB010008D0
:10006000AB010008AB010008AB010008AB010008C0
:10007000AB010008AB010008AB010008AB010008B0
:10008000AB010008AB010008AB010008AB010008A0
:10009000AB010008AB010008AB010008AB01000890
:1000A000AB010008351C0008AB010008AB010008DB
:1000B000AB010008AB010008AB010008AB01000870
:1000C000AB010008AB010008AB010008AB01000860
:1000D000AB010008710B0008E70C000827100008AE
:1000E000AB010008AB010008AB01000800F002F80A
:1000F00000F03AF80AA090E8000C82448344AAF188
:100100000107DA4501D100F02FF8AFF2090EBAE885
:100110000F0013F0010F18BFFB1A43F0010318473B
:10012000742D0000942D0000103A24BF78C878C1C7
:10013000FAD8520724BF30C830C144BF04680C60ED
:10014000704700000023002400250026103A28BF35
:1001500078C1FBD8520728BF30C148BF0B60704739
:100160001FB51FBD10B510BD01F07BFF1146FFF795
:10017000F7FF01F004F901F099FF03B4FFF7F2FF74
:1001800003BC00F067FC000030BF72B662B680F3BB
:100190000888704708480047FEE7FEE7FEE7FEE7ED
:1001A000FEE7FEE7FEE7FEE7FEE7FEE70348044959
:1001B000044A054B70470000ED000008A001002034
:1001C000A0070020A0030020A003002010B558487D
:1001D000806940F00400564988615648006820F064
:1001E0000F00544908605248806940F4007050493B
:1001F00088610846C06840F40070C8600846C0685E
:1002000020F40070C8600846406820F44040486010
:100210000846406840F40040486047480068474945
:1002200008404549086008460068086008460068BC
:1002300020F480700860081D006820F00200091D8D
:1002400008600846006820F46020086008460068DE
:1002500040F4602008600846006840F480100860A0
:100260000846006820F400600860334828300068C1
:1002700020F47000304928310860084600680020EA
:1002800008602D480C30006800202B490C310860B4
:100290000846006840F0070008602748001D006815
:1002A00040F001002449091D08600846006840F03C
:1002B0000800086000BF2048001D006800F008002A
:1002C0000028F8D11C48001D006840F004001A49BD
:1002D000091D086000BF1848001D006800F00400F8
:1002E0000028F8D1052000F037FA10BD0146124869
:1002F0003030006820F01F000F4A30321060104686
:100300000068084310600C48001D006840F480003D
:10031000094A121D106000BF0748001F006800F066
:1003200002000028F8D004484830006880B27047C6
:10033000001002400008014004240140FFFFF000CB
:100340008E48806940F004008C4988618C480068C0
:1003500020F00F008A4908600846006840F0080055
:10036000086087480830006840F48070844908318C
:1003700008608248806940F00400804988618048B4
:10038000001F00687F4908407D49091F0860084632
:1003900000687D4908437A49091F08607848083099
:1003A000006840F01000764908310860084600688F
:1003B00040F0200008600846006840F040000860F7
:1003C0006E48806940F008006C4988616F48006899
:1003D0006C4908406D490860084600686A4908434E
:1003E0006A49086069480830006840F480506749ED
:1003F000083108600846006840F40050086008466C
:10040000006840F48040086070470146604800681A
:1004100040B900205F4A10705F480088401C5E4A67
:10042000108008E05B4800780A2804DA5948007810
:10043000401C584A107057480078012802DD0020FF
:10044000554A10805248006828B95448007810B9BD
:100450000120524A107052480078B0B94F480078D5
:10046000012807D14F480078401C4E4A10700120E7
:100470004B4A10704B480078022806D10020494AA8
:100480001070494A108002207047414800680128D6
:1004900004D10020414A1070414A10704148007850
:1004A00001281CD140480088401C3F4A108010465B
:1004B000008888420ADD38480088884206DA002031
:1004C000384A1070384A10800120DDE73248008831
:1004D000884204DD0020334A1070334A10802E48D1
:1004E0000088B0F5967F02DD0120304A10702F4859
:1004F0000078012808D126480068012804D100208E
:100500002A4A10700320BFE70020BDE72848007882
:1005100038B11F48006820B9002025490870012023
:1005200070471B480068012801D12149087000204C
:10053000F6E72048008840B91548006828B91E48E9
:100540000088401C1C49088002E000201A490880ED
:1005500019480088C82807DD0120164908800020B6
:10056000154908800120704712480088012802D1EF
:100570000020104908800020F5E70000001002402C
:1005800004080140FFFF00F000008808040C01404F
:10059000200121420400002008000020000000206B
:1005A00001000020020000200600002003000020BF
:1005B0000A0000200E0000200C0000202048806966
:1005C00040F008001E4988611E48006820F0704015
:1005D0001C4908600846006840F04050086019480F
:1005E0000830006840F40040164908310860704740
:1005F0001549096809B9154908601449096819B904
:100600000121134A116019E010490968012903D139
:1006100000210F4A116011E00B490968491C0A4A80
:1006200011600A4A1268914208D109490968C94310
:10063000084AC2F8BC110021034A1160704700004B
:1006400000100240040C01401400002010000020A3
:10065000BC812142008021422DE9F04104460F4631
:1006600015461E461F48406940F001001D4948617B
:100670000A2000F071F8A760E5600A2000F06CF82D
:1006800066600A2000F068F82068002020600A20D8
:1006900000F062F8206820602068206020682060F8
:1006A000206820602068206020682060206820602A
:1006B000206840F080002060206820602068206072
:1006C000206840F010002060BDE8F08141600268C1
:1006D00042F0010202607047016821F001010160EF
:1006E00070470000001002404FF0E021096921F03E
:1006F00004014FF0E0221161C21700EB5272C2F305
:10070000C702234B1A701946097801EB4102C2EB6C
:10071000C1114FF6FF7202EAC1011E4A11807047F3
:1007200001461B4A12784A434FF0E0235A610022E7
:100730009A6101221A6100BF4FF0E022106900F0B7
:1007400001021AB100F48032002AF5D000224FF0E5
:10075000E0231A619A61704701460E4A12884A43A3
:100760004FF0E0235A6100229A6101221A6100BF12
:100770004FF0E022106900F001021AB100F480325B
:10078000002AF5D000224FF0E0231A619A617047E9
:10079000180000201A000020A34A0A400243A34B7D
:1007A0001A6070470146072323EA010212029F4B99
:1007B0001B1D18684FF6FF0318409D4B184310434C
:1007C0009A4B1B1D186070472DE9F041074688467B
:1007D00014461D462846FFF7E5FFC5F1040007FA59
:1007E00000F60F20284100EA0800064306F00F0635
:1007F000E21704EBD2625211920002F1E022D2F829
:1008000000212146E31704EBD3635B11A4EB431CE7
:10081000012303FA0CF31A432046E31704EBD363D6
:100820005B119B0003F1E023C3F800218148005DC8
:1008300040EA06107F490855BDE8F08170B50446CE
:100840000B46CE1701EB9676C6F38700CE1701EB69
:100850009676B610A1EB8606B606350E764B9B69EA
:1008600043F00103744EB3614FEAB63353F82030BE
:100870000F26AE40B343714E46F82030334653F84E
:10088000203004FA05F61E436C4B43F820606C4B95
:100890001B6801268E403343694E336002F001032A
:1008A00043B1674B0C331B6801268E403343644EC3
:1008B0000C36336002F0020343B1614B08331E680B
:1008C00001238B401E435E4B08331E6070BD00B594
:1008D000002059490861C8601420486100208861DF
:1008E000C8610846006840F001000860084640689A
:1008F0005449084050494860084600685249084039
:100900004D4908600846006820F4802008600846C9
:10091000406820F4FE0048600020886000214FF00D
:100920000060FFF739FF00BD10B54048083000688F
:1009300040F004003D49083108603F48C06940F07C
:1009400080503D49C8614148406840F480703F494B
:1009500048600846006840F00400086008460068E7
:1009600040F002000860FFF70FFC10BD3048001D8A
:100970002E49091D08607047014649062E4A9269B2
:1009800042F001022C4B9A612C4A083A526822F03C
:10099000E0622A4B083B5A601A4652680A435A6082
:1009A000704730B504460025FFF791FF22480068E4
:1009B00040F480302049086000BF1F480068400CA8
:1009C0000028FAD04FF480601B494860A01EC4B2D2
:1009D0000846406840EA844048600846406840F461
:1009E000803048601A48006840F0320018490860BA
:1009F0001148006840F080700F49086000BF0E4841
:100A00000068400E0028FAD00B48406840F0020011
:100A10000949486005E008484068C0F3870505F0CB
:100A20000305022DF7D130BD80FFFF1F08ED00E068
:100A30000000FA0500E400E0001002400800014058
:100A4000000401400000FFF8FFFFF6FE00700040C8
:100A500000200240014600BF0020704700BFFD4A51
:100A6000128802F04002002AF9D0C2B2F94B1B1DD5
:100A70001A807047F749091D088000BFF5490988A9
:100A800001F040010029F9D070472DE9F05F0546DB
:100A90000E46300102F09EF88146EF4905FB01F059
:100AA00002F098F88246494601F0B2FF0746384600
:100AB00002F070F884B2204602F08CF88346394682
:100AC00002F068F982464FF0834102F097F88146C0
:100AD00002F060F880464FF6FF7000EA041404EB61
:100AE000080084B2DD48806940F00400DB49886179
:100AF0000846806940F480408861D948006820F445
:100B00007F60D74908600846006840F40B600860C1
:100B1000D3480830006840F40070D14908310860BB
:100B2000CE48C06840F48040CC49C8600846C068E0
:100B300020F48040C860C74808300480001D008849
:100B400042F20C010843C3490C3108800846008872
:100B500040F4807008800846008840F0200008803B
:100B60000223252201210020FFF72EFEBDE8F09F81
:100B7000B848008800F02000E0B1B648001D0088A9
:100B8000B849B94A127888540120B8490870B54864
:100B90000078AA280ED1B4480078401CB2490870E9
:100BA000084600781A2805DD0120B14908700020A8
:100BB000AD49087000207047AE49088000BFAD49BC
:100BC000091F098801F040010029F8D070472DE97C
:100BD000F05F05460E46300101F0FCFF81469E495C
:100BE00005FB01F001F0F6FF8246494601F010FFD7
:100BF0000746384601F0CEFF84B2204601F0EAFFF6
:100C00008346394602F0C6F882464FF0834101F030
:100C1000F5FF814601F0BEFF80464FF6FF7000EA07
:100C2000041404EB080084B28C48806940F004008E
:100C30008A4988610846C06940F40030C861884824
:100C4000001F006820F47F408549091F086008469E
:100C5000006840F40B4008608048006940F40030B0
:100C60007E4908610846006920F400300861814827
:100C7000001D0480001D008842F20C0108437D49DC
:100C8000083108800846008840F4807008800846D3
:100C9000008840F020000880022326220121002045
:100CA000FFF792FDBDE8F09F30B502464FF6FF70AA
:100CB00001B9012111E01478604000230AE000F03E
:100CC000010424B140104AF20104604000E04010E9
:100CD0005C1CE3B2082BF2DB521C0C1EA1F10105D7
:100CE000A9B2E8D130BD00B56248001F008800F00D
:100CF000200000287ED05F4800885F495F4A127854
:100D000088545E480078072875D2DFE800F00416A2
:100D1000333435363C0058480078BB2807D0564855
:100D20000078012803D054480078022804D15348A1
:100D30000078401C51490870FBE04F48407801287A
:100D40000BD04D484078022807D04B484078032804
:100D500003D049484078042805D148480078401C11
:100D60004649087005E000204449087042480021C7
:100D70000160DEE000BF00BF00BF40480078401CBB
:100D80003E490870D5E000203D4908703A48007897
:100D9000BB285ED1002008E03749095C384A127848
:100DA0001144374A1170411CC8B20628F4DB32489E
:100DB00080793349097888426AD12F4840780128E0
:100DC0000FD12D4880782C49C97840EA01202A4962
:100DD000097940EA01402849497940EA01602949F6
:100DE000086025484078022812D12348807822499B
:100DF000C97801E09EE09BE040EA01201E490979A4
:100E000040EA01401C49497940EA01601E490860F6
:100E10001948407803280FD1174880781649C978B7
:100E200040EA01201449097940EA01401249497910
:100E300040EA0160154908600F484078042870D1E5
:100E40000D4880780C49C97840EA01200A4909799F
:100E50001FE027E00038014040420F000010024030
:100E600004080140F800002020000020EF000020CE
:100E700021000020044400403000002048000020F1
:100E8000490000208C0000209000002094000020E9
:100E900047E040EA01406A49497940EA016069490E
:100EA00008603EE005216648FFF7FEFE66490880BF
:100EB0000846007865490870634800880012644954
:100EC00008705F480078012813D15D4840780328F6
:100ED0000FD15B4840795D490978884209D158486B
:100EE00080795B490978884203D15548007959498E
:100EF000087053480078022813D1514840780328DD
:100F00000FD14F48407951490978884209D14C485E
:100F100080794F490978884203D1494800794E4980
:100F2000087000204D49087045480021016000E02C
:100F300000BF00BF002000BD2DE9F05F05460E4652
:100F4000300101F047FE8146454905FB01F001F003
:100F500041FE8246494601F05BFD0746384601F0F6
:100F600019FE84B2204601F035FE8346394601F071
:100F700011FF82464FF0834101F040FE814601F0AF
:100F800009FE80464FF6FF7000EA041404EB0800E7
:100F900084B23448806940F00100324988610846D3
:100FA000806940F0080088610846C06940F48020EC
:100FB000C8612D48006820F47F402B49086008462E
:100FC000006840F40B40086027480830006840F48F
:100FD00080602549083108602248006940F480207B
:100FE000204908610846006920F4802008611F48F4
:100FF0000480001D008842F20C0108431B49091DB2
:1010000008800846008840F4807008800846008800
:1010100040F0200008800223272201210020FFF752
:10102000D3FBBDE8F09F11480838008800F020008D
:1010300020B10E48001F00880D490860002070474D
:101040003000002098000020240000202200002012
:1010500023000020EC000020ED00002048000020CC
:1010600040420F0000100240040C014008480040BC
:101070002C00002070B505460C46FE48806940F4FF
:101080000060FC498861FC490D80081F0480FA4813
:101090002038008840F00100F749203908800846D0
:1010A000008840F040000880F3482C38008840F069
:1010B0000100F1492C390880022319221946012028
:1010C000FFF782FB70BD2DE9F04105460E4617463D
:1010D0001C46EA480021016041600172AA20E749EC
:1010E0000870084645708670C7700C71200A4871F8
:1010F000200C8871200EC8710020087200BF08E023
:10110000DE49097ADD4A125C1144DC4A1172411C45
:10111000C8B20828F4DBDA48006800F0007070B14B
:10112000D7488030FFF7D8FAD548406840F00070C3
:10113000D34948600921D2488030FFF7C7FABDE89B
:10114000F08110B50120FFF753FA04E0CD48007894
:10115000012800D100E0F9E700BF0024C1E0CA483F
:101160000068012812D1C848001D006801280DD16F
:10117000C54808300068012808D1C4480068012823
:1011800004D1C3480078401CC1490870C0480078A9
:10119000032800DDAAE0BC480068A8B9BB48001DD0
:1011A0000068012810D1B9480830006801280BD127
:1011B0004FF4BE10B74908600846002201210368B9
:1011C0000846FFF780FF0CE0B3480068A0F58040B8
:1011D000B049086008460022114603680120FFF765
:1011E00072FF1E20FFF7B8FAA748001D0068A0B9DB
:1011F000A648001D006801280FD1A44808300068E7
:1012000001280AD1A548A649086008460022012104
:1012100003680220FFF757FF0CE0A248006800F5C2
:1012200000409F49086008460022114603680220DA
:10123000FFF749FF1E20FFF78FFA93480830006838
:10124000A8B99248001D0068012810D18F480830C5
:10125000006801280BD14FF4BE109349086008467E
:101260000022012103680320FFF72DFF0CE08F48C7
:101270000068A0F580408C490860084600221146AD
:1012800003680320FFF71FFF1E20FFF765FA7F4862
:101290000068A0B97D48001D006801280FD17B4877
:1012A0000830006801280AD17C4881490860084656
:1012B0000022012103680420FFF705FF0CE07D48B0
:1012C000006800F500407A4908600846002211468F
:1012D00003680420FFF7F7FE1E20FFF73DFA601CAD
:1012E00084B24FF6FF708442FFF639AF00BF322060
:1012F000FFF732FA002429E066480122114603680C
:101300001046FFF7E0FE3220FFF726FA644801227C
:10131000114603680220FFF7D6FE3220FFF71CFAC1
:1013200061480122114603680320FFF7CCFE3220FA
:10133000FFF712FA5E480122114603680420FFF706
:10134000C2FE3220FFF708FA601C84B2052CD3DB02
:101350006420FFF701FA5048006857490860514877
:10136000006856490860514800685549086051486E
:101370000068544908606420FFF7EEF910BD86B09C
:101380000920FFF70EFB4820FFF7AEF90220FFF718
:10139000F3FAFEF71BFFFFF711F9FEF7D1FF31E07B
:1013A0000020FEF7A3FF019001F0D4F880464FF033
:1013B0006632454B01F0E2F806460022434B01F04D
:1013C000DDF804460022424B01F0D8F80022414BE0
:1013D000CDE9020100F020FF00223F4BCDE90401DE
:1013E00000F01AFF824601F06FF83C490860084699
:1013F000006840F6CA01884204DD39480068401E92
:1014000037490860364800680028C9D14FF4E131F7
:101410004820FFF73AFB4FF4E1312420FFF7D7FBD8
:101420001420FFF799F91F232E4A2F4914484430FE
:10143000FFF712F92C481030008840F080002A494C
:10144000103108801F210E484430FFF73FF9142067
:10145000FFF782F90923094A244909488030FFF738
:10146000FBF822481030008840F080001F491031FE
:1014700008803DE0001002402C2C014013010020A8
:1014800000000240EF000020100121423081214283
:10149000F30000207C0000208C0000200040E3FFCF
:1014A0008000002090000020840000209400002094
:1014B00088000020980000209C000020A000002050
:1014C000A4000020A800002066660A400000264014
:1014D000000059400000F03F0000B04050000020E4
:1014E000580000201C010020043801400444004042
:1014F0000921F748FFF7EAF81420FFF72DF94FF418
:101500007A70FFF729F94FF47A70FFF725F9FFF7A2
:1015100018FE4FF4FA70FFF71FF94FF4E151632002
:10152000FFF7A8FD03E04FF4FA70FFF715F9FAE7AB
:1015300010B5E848006818B90120E749087002E0D2
:101540000020E5490870E348001D006818B9012033
:10155000E249087002E00020E0490870DD480830E8
:10156000006818B90120DE49087002E00020DC495B
:101570000870DC48006818B90120DB49087002E0F7
:101580000020D9490870D748001D006818B1D54817
:101590000830006840B90020CF490870CF49087072
:1015A000CF490870D0490870D0480088401CCF4906
:1015B00008800846008801283BD1C74800780128E8
:1015C00027D1CB480068CB4909680844CA4908605C
:1015D00008460068C6490968884203DDC4480068B7
:1015E000C5490860C2480068A0F5AA10C249096848
:1015F000884205DDBE480068A0F5AA10BE49086013
:10160000BD4801220368BD4801781046FFF75BFD25
:10161000CDE1BB480068B8490860BA4800210160C4
:1016200041600172B448012203681046FFF74BFD88
:10163000BDE1AE48008807283BD1A84800780128C2
:1016400027D1B1480068B14909680844B049086029
:1016500008460068AC490968884203DAAA4800686D
:10166000AB490860AA480168A748006800F5DC108B
:10167000814205DDA448006800F5DC10A44908603B
:10168000A34801220368A34801780220FFF71BFD4D
:101690008DE1A14800689E4908609A4800210160D8
:1016A000416001729A48012203680220FFF70BFD96
:1016B0007DE18E4800880D2837D1894800780128BF
:1016C00027D19648006896490968084495490860FA
:1016D0000846006891490968884203DD8F48006820
:1016E000904908608D480068A0F5AA108D490968E6
:1016F000884205DD89480068A0F5AA10894908607C
:10170000884801220368884801780320FFF7DBFC42
:101710004DE186480068834908600846012200219F
:1017200003680320FFF7CFFC41E1704800881328CD
:1017300037D16D480078012827D17D4800687D4960
:10174000096808447C4908600846006878490968C7
:10175000884203DA7648006877490860764801686D
:101760007348006800F5DC10814205DD70480068B0
:1017700000F5DC10704908606F48012203686F486B
:1017800001780420FFF79FFC11E16D4800686A4969
:10179000086008460122002103680420FFF793FC3B
:1017A00005E152480088192859D16648007808B9DF
:1017B000012000E00020634908700846007830BB33
:1017C00061480078012810D14E4908700620487001
:1017D000002088703720C8700020087101204871EF
:1017E000F9208871C420C87122E0012045490870A1
:1017F00006204870002088703620C87000200871CC
:1018000001204871A82088710420C87110E00120CF
:101810003C49087003204870002088704020C87040
:10182000002008710120487185208871DE20C87170
:1018300027488038006800F0007000280ED0244847
:10184000FEF74AFF22488038406840F00070204987
:101850008039486008211E48FEF738FFA7E023487A
:1018600000881F2833D13948007808B9012000E0EA
:101870000020364908700846007838BB34480078A4
:10188000012811D102201F4908700620487000204D
:1018900088703720C8700020087101204871F92035
:1018A0008871F720C87166E002201649087006208A
:1018B0004870002088703620C87000200871012010
:1018C0004871A82088713720C87154E042E067E071
:1018D00080000240100121427700002078000020A3
:1018E00079000020308121427A0000205E00002033
:1018F0009C000020AC0000207C0000206F00002035
:101900008C00002013010020A0000020B000002067
:10191000800000207000002090000020A400002023
:10192000B4000020840000207100002094000020FA
:10193000A8000020B80000208800002072000020CD
:1019400098000020F100002073000020F200002029
:10195000740000200220FC49087003204870002019
:1019600088704020C87000200871012048718520CF
:101970008871ED20C871F548006800F00070B0B1C2
:10198000F2488030FEF7A8FEF048406840F0007052
:10199000EE4948600821ED488030FEF797FE06E0EA
:1019A000EB480088252802DB0020E949088010BDAB
:1019B0002DE9F04706460C4617461D46DDE9088925
:1019C000002E00DA0026B6F58C7F01DD4FF48C7610
:1019D000002C00DA0024B4F5DC7F01DD4FF4DC7468
:1019E000002F00DA0027B7F58C7F01DD4FF48C77EC
:1019F000002D00DA0025B5F5DC7F01DD4FF4DC7544
:101A00007042C11700EB917189108903D14A1160AE
:101A10002046E11704EB917189108903CE4A1160C9
:101A20007842C11700EB917189108903CB4A11608C
:101A30002846E91705EB917189108903C84A11609E
:101A4000C84880F80080C84880F80090C7480078EF
:101A5000012810D1C6480078C6490870C6480078E9
:101A6000C6490870C6480078C6490870C64800785C
:101A7000C649087008E00020BE490870BF490870D8
:101A8000C0490870C1490870FFF752FDC04800689E
:101A9000C0490968401AC0490860C0480068C04988
:101AA0000968401ABF490860BF480068BF49096813
:101AB000401ABF490860BF480068BF490968401A1A
:101AC000BE490860BDE8F0872DE9F04F09AD95E803
:101AD000E010DDE90D890F9C4FF0000ADFF8E0B25D
:101AE0008BF81EA04FF0AA0A8BF800A08BF801A07B
:101AF0004FF0F10A8BF802A04FF01A0A8BF803A0FE
:101B00008BF804004FEA102A8BF805A04FEA104A20
:101B10008BF806A04FEA106A8BF807A08BF8081024
:101B20004FEA112A8BF809A04FEA114A8BF80AA054
:101B30004FEA116A8BF80BA08BF80C204FEA122A9F
:101B40008BF80DA04FEA124A8BF80EA04FEA126AEA
:101B50008BF80FA08BF810304FEA132A8BF811A0E6
:101B60004FEA134A8BF812A04FEA136A8BF813A0BE
:101B7000DA468AF814508AF815608AF816708AF8DE
:101B800017C08AF818808AF819908BF81A404FEA23
:101B9000142A8BF81BA04FEA144A8BF81CA04FEABA
:101BA000146A8BF81DA04FF0000A10E0DFF810B2A5
:101BB0009BF81EB0DFF808E21EF80AE0F344DFF8F5
:101BC00000E28EF81EB00AF1010B0BF0FF0ABAF129
:101BD0001E0FEBDBBDE8F08F10B53C20FEF715FCC7
:101BE0007849087008460078012822D161480078B9
:101BF00008B9012000E000205E4908705F480078C5
:101C000008B9012000E000205C4908705D480078B8
:101C100008B9012000E000205A4908705B480078AC
:101C200008B9012000E000205849087000206549EB
:101C3000087010BD2DE9F04F8BB06348008800F0AC
:101C4000010000287ED06048008820F001005E4935
:101C50000880FFF7C1FF5D480078012873D100209C
:101C600008E05B49095C5B4A12781144594A1170DB
:101C7000411CC8B21A28F4DB5548C07816285DD13B
:101C80005348807E53490978884257D1504800799B
:101C90004F49497940EA01204D49897940EA01409C
:101CA0004B49C97940EA01604B4908604848007ACD
:101CB0004749497A40EA01204549897A40EA01408A
:101CC0004349C97A40EA0160444908604048007BC2
:101CD0003F49497B40EA01203D49897B40EA014078
:101CE0003B49C97B40EA01603D4908603848007CB7
:101CF0003749497C40EA01203549897C40EA014066
:101D00003349C97C40EA0160364908603048007DAB
:101D1000174908702E48407D174908702C48807D6F
:101D2000174908702A48C07D174908702848007E66
:101D30002D4908702648407E2C490870002025490E
:101D4000087055E03BE159E013010020000002401B
:101D50005E000020AC000020B0000020B400002095
:101D6000B800002073000020740000206E000020E6
:101D70006A0000206F0000206B000020700000202F
:101D80006C000020710000206D0000207200002017
:101D90007C0000208C000020BC000020800000207F
:101DA00090000020C000002084000020940000204B
:101DB000C40000208800002098000020C8000020F7
:101DC0001C010020F4000020102C01402100002004
:101DD000F8000020F0000020CC000020D0000020FF
:101DE000D4000020D80000207500002076000020DC
:101DF000FF20744988760020734908707349096888
:101E0000734A1268881AC11700EB9141891389003F
:101E1000704A116070490968704A1268881AC117BF
:101E200000EB9141891389006D4A11606D49096881
:101E30006D4A1268881AC11700EB91418913890015
:101E40006A4A11606A4909686A4A1268881AC117A1
:101E500000EB914189138900674A11606748006867
:101E600000F4005068B365484430FEF735FC644820
:101E7000006864490978644A1278644B1B78CDE99C
:101E80000332CDE905106248007862490978624A58
:101E90001278CDE900210290574803685348026840
:101EA0004F4801684B480068FFF70EFE53484068F2
:101EB00040F40050514948601F2150484430FEF71B
:101EC00005FC5648007856490978CDE90010554878
:101ED0000368554802685548016855480068FFF78F
:101EE00067FD0020FEF702FA019000F033FB804608
:101EF0004FF066324F4B00F041FB00224E4BCDE9D4
:101F0000020100F03BFB00224C4BCDE9040100F044
:101F100035FB064600224A4B00F07EF90022494B71
:101F2000CDE9060100F078F904460D464648006800
:101F300000F0F9FA22462B46CDE9080100F0C4F87A
:101F4000824600F0C1FA4049086040480088401CC1
:101F50003E4908800846008896280BD13A48006818
:101F6000098890FBF1F02649086000203749088075
:101F7000354908602248006840F6E801884203DDE0
:101F80003220FEF735FB02E00C20FEF731FB1C4847
:101F9000006840F6B601884209DA2D480088B0F59D
:101FA000C87F04DA2A480088401C2949088028484C
:101FB0000088B0F5967F02DD0020264908700BB03E
:101FC000BDE8F08FF8000020210000208C000020E8
:101FD0009C000020DC00002090000020A0000020D9
:101FE000E000002094000020A4000020E400002075
:101FF00098000020A8000020E80000200000024017
:1020000050000020ED000020EC00002072000020B5
:1020100071000020700000206F000020760000207A
:1020200075000020D8000020D4000020D00000203F
:10203000CC00002066660A4000002640000059409F
:102040000000F03F0000B040540000205C00002081
:10205000680000206E00002070477047704770478E
:102060007047754600F02CF8AE46050069465346A9
:1020700020F00700854618B020B5FEF797F8BDE8B8
:1020800020404FF000064FF000074FF000084FF0DF
:10209000000B21F00701AC46ACE8C009ACE8C00970
:1020A000ACE8C009ACE8C0098D46704710B50446DD
:1020B000AFF300802046BDE81040FEF75EB8000098
:1020C000004870473C01002010B591EA030F48BF5B
:1020D00083F0004300F15883841A71EB030C05D29E
:1020E000121943EB0C03001B61EB0C01DFF824E138
:1020F0004FEA1154A4EB135C1EEA430F18BF9EEA8B
:10210000445F73D023EA0E03DCF1200E21EA045170
:1021100043F4801332D322FA0CFE10EB0E0023FAA4
:102120000CFE41EB0E01CCF1200E03FA0EFE10EB7B
:102130000E0051F10001B1F5801FCCF1200E32D21A
:1021400001EB045112FA0EF2BDE8104058BF70477F
:10215000401C38BF5FEA420218BF7047002814BF16
:1021600020F0010041F100014FEA410313F5001F87
:1021700038BF7047A1F1C04100F0F8BA012A43EB23
:102180000302ACF1200CDCF11F0E32BF4FF0000E49
:1021900023FA0CF310EB030041EB0451B4EB115F95
:1021A000D0D0A1EB045101F5801149085FEA30005D
:1021B00001EB04510ED350F1000038BF12FA0EFEAD
:1021C00008D1BDE81040C9E7401C38BF5FEA4202B1
:1021D000CAD1C3E7BDE810404FEA410313F5001F21
:1021E00038BF7047A1F1C04100F0C0BA9EEA445F19
:1021F00008D011EA5E0FBDE8104004BF01F00041B5
:1022000000207047BDE8104070B500F061FA00BFD3
:1022100064FBBE3E0000E0FF2DE9C04130B4DFF8B2
:10222000A0C23CEA111418BF3CEA131400F0EC8081
:1022300081EA03051CEA111444EAD57418BF1CEAAC
:10224000131500F0C780A4EB05044FF0004545EAE4
:10225000C12145EAC32341EA505143EA525304F1F4
:102260007F74994204F500344FEAC0204FEAC2223D
:1022700008BF904200F09C804FEA13650FF24016B1
:10228000765D4FEA134506FB05F7C7F1807706FB3D
:1022900007F74FEAD737A7FB03687642C8F58038BF
:1022A000A7FB06CE38BFA8F1010807FB08E64FF0F0
:1022B000000EA6FB028CE6FB03CEDCF1000CCEF197
:1022C000004E38BFAEF1010EA6FB0C584FF00007D0
:1022D0004FF00005E6FB0E87A1FB08C6A0FB07CE6A
:1022E00016EB0E0645F10005E1FB076515F1E04E22
:1022F0007EBFA4F580345FEA46066D4116F1800783
:1023000045F100054FEA17274FEA066647EA0567D9
:10231000A6F1DE46B6F1805F4FEA15251FD9384693
:1023200024F0010C05EBC471BCF1FE6F01EB0C1144
:1023300002D8F0BCBDE8008124425CBF01F5801EDC
:102340009EEAC47F02D4F0BCBDE80081244238D4A8
:10235000F0BCA1F1C041BDE8004100F007BA4FEA6E
:10236000D22242EA43524FEAD323A7FB02864FEA26
:10237000D02040EA415007FB03661EEA0E0F4FEAE9
:10238000D12105FB026658BFA6EB0056B6EB0056FE
:102390004FEA520E4EEAC37E18EB0E0E56EB530E6A
:1023A000BDD518EB02085E417F1C55F10005B6E76C
:1023B0004FF480154FF000074FF000064FF0000873
:1023C000ADE7F0BC4FF0000001F1C04101F0004169
:1023D000BDE8008111EA0C1F0CEA131500D00CE0D7
:1023E00013EA0C1F00F025804FF00000F0BC81EADA
:1023F000030101F00041BDE80081F0BCBDE80041EF
:1024000081EA030100F0B2B9F0BCBDE8004170B54B
:1024100000F05EF9097EFC3E00F007B881EA030196
:102420004FF0000001F00041704781EA030100F025
:102430009DB9F0BCBDE800414FF000002149704754
:10244000FFFDFBF9F7F5F4F2F0EEEDEBE9E8E6E479
:10245000E3E1E0DEDDDBDAD8D7D5D4D3D1D0CFCD00
:10246000CCCBCAC8C7C6C5C4C2C1C0BFBEBDBCBB39
:10247000BAB9B8B7B6B5B4B3B2B1B0AFAEADACAB34
:10248000AAA9A8A8A7A6A5A4A3A3A2A1A09F9F9E0E
:102490009D9C9C9B9A9999989797969595949393C0
:1024A000929191908F8F8E8E8D8C8C8B8B8A898957
:1024B00088888787868585848483838282818180DA
:1024C0000000FF070000F87F4FEA41034FEA535333
:1024D000A3F58063D3F11E03C8BFD3F1210C0CDD3B
:1024E0004FF0004242EAC12242EA505232FA03FC63
:1024F0008CEAE17CACEBE1707047102BC4BF00208C
:10250000704703F5787CBCF1FF3F04D06FF00042C8
:1025100082EA2100704770B500F0DAF84992248011
:1025200000207047F2E710F0004248BF4042B0FA86
:1025300080F310FA03F10AD0C3F11D0303F58063A1
:102540004FEA415002EB035202EBD12170474FF0AA
:1025500000007047B0FA80F310FA03F10AD0C3F11B
:102560001D0303F580634FEA41504FEA035202EB2B
:10257000D12170474FF0000070470000DFF848C1DC
:1025800070B51CEA111E1EBF1CEA13159EEA0C0F43
:1025900095EA0C0F00F06F8081EA030423EA4C13E4
:1025A0004EEAD47E21EA4C1141F4801143F48013A9
:1025B000AE44A1FB024CA0FB0365AEF17F7E361951
:1025C00055EB0C05A1FB034C4CF10003A0FB021CD6
:1025D00016EB0C06654153F10003094218BF46F0A3
:1025E000010613F4007F0BD14FEA03314FEA0530A7
:1025F000340341EA155140EA16506FF003020AE035
:102600004FEAC3214FEAC520F40241EA555140EA9E
:1026100056506FF0020202EB2E4201EB025585EAA2
:10262000CE710AD05FEA440C18BF24F0004450F188
:10263000000041F1000120EAD47040F2FE7C6245C6
:1026400000D270BDA84214BF4FF080444FF0404408
:10265000002E08BF0024BEF1806FA8BFA1F1C041C9
:10266000BDE8704080F282804FF0000001F1C0416F
:1026700001F0004170479EEA0C0F0CEA131518BFD9
:1026800095EA0C0F06D04FF0000081EA030E0EF021
:10269000004170BD00F01CF88900013E00F007B851
:1026A00000F009B84FEA430C5FEA5C5C08D081EAAD
:1026B000030100F05BB84FEA410C5FEA5C5CF6D1C5
:1026C0004FF00000014970470000FF070000F87F4D
:1026D0000EF1020E2EF0030E5EF8046B364205D4A6
:1026E000012A43EB030515F5001F12D8012841EB21
:1026F000010C1CF5001F0CD80ED14FEAD17C15F54A
:10270000001F0CEB4C0C0CF1020C08BF4CEBD37C03
:1027100004E04FF0080C01E04FEAD37C0CEB4C05D1
:1027200026FA05F606F00706B6F1040C06D20EEB03
:10273000860CBDE870404CF0010C6047DFE80CF0FF
:10274000090B02024FF000414FF00000A1F50021FB
:1027500070BD19461046012851EB010418BFD4F58D
:10276000001484BF002001F0004170BD0808A0F5EE
:1027700000114FEA3101704710B591EA030F48BFCD
:1027800083F000433FF5A8AC841A71EB030C07D229
:1027900012198CF0004C43EB0C03001B61EB0C0195
:1027A000DFF8A4E14FEA1154A4EB135C1EEA430FD7
:1027B00018BF9EEA445F00F0B08023EA6E035242E5
:1027C00021EA0451C3EB6E0338BF5B1EDCF1200E1F
:1027D00025D322FA0CFE10EB0E0043FA0CFE41EB5F
:1027E0000E01CCF1200E03FA0EFE10EB0E0051F19B
:1027F0000001CCF1200E29D412FA0EF201EB0451A3
:10280000BDE8104058BF7047401C1CBFB2F1004FDC
:10281000704700280CBF491C20F00100704712EBE4
:10282000020E43EB030218BF4FF0010E4EEA4202C4
:10283000ACF1200CDCF11E0E54D943FA0CFE10EB67
:102840000E0051F1FF31CCF11E0ED5D50EF1010E67
:1028500012FA0EFE404141EB010101EB445C5FEADC
:102860005C5C10D910EBDE7001EB045138BFBEF197
:10287000004FBDE8104018BF704700280CBF491C2E
:1028800020F00100704730D24FEAD42C11F500112E
:1028900024F400641BD0B1FA81F20B3AA41AA41EEE
:1028A000D2F12003914030FA03F31943904001EB39
:1028B000CC71002C01EB0451BDE81040A8BF70475B
:1028C00001F1C0414FF0000001F000417047B0FA43
:1028D00080F310FA03F100D110BDE41A173C48054B
:1028E000C90AE4E701EB045110BD491001EB0451A2
:1028F000BDE810404FEA300002E04FF000017047A1
:102900004A0008BF0042F8D0B2F5001F28BF704748
:1029100001F000414FF0000070479EEA445F07D08D
:1029200011EA5E0FBDE8104004BF0021002070478F
:10293000BDE8104070B5FFF7CBFE00BF40DFF63EAC
:1029400083F00041104670470000E0FF90EA010F5D
:1029500048BF81F0004100F12E82421A3CBF801A2C
:1029600089184FEAD0524FF07F4C1CEA410FA2EB7E
:10297000D15318BF9CEA026F00F03B804FF0004C2F
:102980004CEA00204CEA012121FA03FC10EB0C0C6C
:102990001ED202F1FF325FEA1C2040EBC25038BF6A
:1029A00070471CF07F0F4FEA400C18BFBCF17F4FFF
:1029B00038BF7047C3F12003994008BF20F00100E1
:1029C000BCF17F4F38BF7047A0F1C04000F0DDB9C7
:1029D0004FEA3C00000A40EBC25028BF1CF0FF0F3A
:1029E0004FEA400CE6D018BFBCF17F4F38BF7047AC
:1029F000EAE79CEA026F05D010EA5C0F08BF00F01E
:102A00000040704710B500F07AF900BF64FBBE3E8D
:102A10004FF47F0C1CEAD0121EBF1CEAD11392EABD
:102A20000C0F93EA0C0F00F0858090EA010F48BF6D
:102A300042F4807240F4000C41F400002CF07F411D
:102A400020F07F4000B58142A2EB03020FF2081C88
:102A5000ACEB504EC0F100009EF800E04FEA4E0E85
:102A600000FB0EFC38BF49004FEA2C1C02F5FA02AD
:102A70000CFB0EF34FEACE1E4FEA112C4FEAC12198
:102A80000EEB635E42EB22420EFB0CFC4FEA1C5342
:102A900000FB03114FEA112C4FEA01310EFB0CFC35
:102AA0004FEADC4C00FB0C11C14228BF09184CEB6B
:102AB00003335DF804EB10EB410143EBC250B2F578
:102AC0007C0F38BF704729D512F0F00F1CBF00F102
:102AD000C04000F000407047008182838485868773
:102AE00088898B8C8D8E8F919293959697999A9CCD
:102AF0009D9FA0A2A3A5A7A8AAACAEB0B2B3B5B73C
:102B0000B9BCBEC0C2C5C7C9CCCED1D4D7D9DCDF11
:102B1000E2E6E9ECF0F3F7FAFE0000004FEA400CC1
:102B20000CF1807CBCF17E4F28BF7047B0F1C040F3
:102B300000F02BB990EA010F0CEAD11348BF42F420
:102B40008072624538BF634507D213F47F0F16D0F9
:102B500080EA010000F00040704710B500F0CFF8A7
:102B6000097EFC3E00F005B880EA010000F000405C
:102B7000704780EA010000F0004000F006B912F44E
:102B80007F0F04BF0248704780EA010000F0FDB8E3
:102B90000000C07FC10DD1F19E0206DB4FEA002389
:102BA00043F0004323FA02F07047004207D54FEA92
:102BB0004001B1F1FE4F02D24FF00000704710B556
:102BC00000F09DF849922480002070476FEA2000B1
:102BD00070470000B0FA80F310FA03F2C3F19D03CE
:102BE0000AD0D90501EB1220530638BF704700F117
:102BF000010008BF20F00100704700004FF47F0C77
:102C00001CEAD0121EBF1CEAD11392EA0C0F93EA01
:102C10000C0F00F0478090EA010F48BF42F4807229
:102C20004FF0004C4CEA00204CEA012102EB030279
:102C3000A0FB0113A2F50002002918BF43F0010315
:102C40005B0028BF4FEA330342EB22425FEA132CBA
:102C50004CEBC2502EBFBCEB436FB2F57C0F7047FC
:102C60004FEA036CBCF1004F08BF20F00100B2F541
:102C70007C0F38BF70470BD582F0FF0212F5803F02
:102C8000C8BF704700F1C040D8BF00F00040704797
:102C900000F5000C5FEA4C0C48BF7047B0F1C04033
:102CA00000F073B890EA010F0CEAD11348BF42F468
:102CB0008072624538BF634504D280EA010000F0AB
:102CC0000040704710B500F01AF800BF8900013EBF
:102CD00000F007B800F009B85FEA410C5FEA1C6C2D
:102CE00008D080EA010000F050B85FEA400C5FEACB
:102CF0001C6CF6D14FF00040A0F5800070470EF13B
:102D0000020E2EF0030E5EF8044B244204D44FEA68
:102D10004102B2F17F4F11D84FEA4003B3F17F4F28
:102D20000CD80ED14FEAD07CB2F17F4F0CEB4C0C9B
:102D30000CF1020C08BF4CEBD17C04E04FF0080C06
:102D400001E04FEAD17C0CEB4C0324FA03F404F0CD
:102D50000704B4F1040C06D20EEB840CBDE810405D
:102D60004CF0010C6047DFE80CF0070802024FF05E
:102D70000040A0F5800010BD0846420018BFD2F107
:102D8000807288BF00F0004010BDFF2141EAD050A2
:102D9000C005704780F0004090EA010F7FF5DDAD7F
:102DA00081F0004100F007B890EA010F48BF81F0C0
:102DB00000413FF5D2AD421A04D882F00042A0EBA8
:102DC000020011444FEAD0524FF07F4C1CEA410FF1
:102DD000A2EBD15318BF9CEA026F4AD04FF0004CCF
:102DE0004CEA00204CEA012121FA03FCB0EB0C0C68
:102DF0000FD412F0FE0F36D05FEA4C001DD5001242
:102E000040EBC25038BF70471CF03F0F18BF7047EF
:102E10000BE0A2F101025FEA1C2040EBC25038BF78
:102E200070471CF07F0F18BF7047C3F12003994013
:102E300014BF401E20F00100704780084FEA1223A3
:102E400008BF7047B0FA80FCA2EB0C02CCF1280C52
:102E500060FA0CF093EA122F04BF00EBC2507047E7
:102E60004FEAC3707047130A5FEADC1008BF70476F
:102E7000F6E79CEA026F04D010EA5C0F08BF00205E
:102E8000704710B5FFF73BFF40DFF63E81F0004092
:102E900070470000B42E000800000020F800000079
:102EA00028010008AC2F0008F8000020A806000048
:102EB00044010008000000000000000000000100C4
:102EC0000000000000000000000000000000000002
:102ED00000000000000000000000000000000000F2
:102EE00000000000000000000000000000000000E2
:102EF0000000000000000000FE01000000000000D3
:102F0000000000000000000000000000102700008A
:102F100000000000000000000000000000000101AF
:102F2000010101010101010000000000000000009A
:102F30000000000000000000000000000000000091
:102F40000000000000000000000000000000000081
:102F50000000000000000000000000000000000071
:102F60000000000000000000000000000000000061
:102F70000000000000000000000000000000000051
:102F80000000000000000000000000000000000041
:102F90000000000000000000000000000000000031
:0C2FA00000000000000000000000000025
:04000005080000ED02
:00000001FF
